:020000040800F2
:1000000088140020ED010008A9250008391B00080C
:10001000A525000873170008A7330008000000009A
:100020000000000000000000000000002D29000872
:10003000C11700080000000031260008592C0008F4
:10004000070200080702000807020008070200086C
:10005000070200080702000807020008070200085C
:10006000070200080702000807020008070200084C
:10007000070200080702000807020008070200083C
:10008000070200080702000807020008070200082C
:10009000070200080702000807020008070200081C
:1000A000070200080702000807020008070200080C
:1000B00007020008BD2C000807020008070200081C
:1000C00007020008070200080702000807020008EC
:1000D00007020008F92F000839310008070200085C
:1000E00007020008070200080702000807020008CC
:1000F00007020008070200080702000807020008BC
:1001000007020008070200080702000807020008AB
:10011000070200080702000807020008070200089B
:10012000070200080702000807020008070200088B
:1001300000F002F800F04AF80AA090E8000C8244AF
:100140008344AAF10107DA4501D100F03FF8AFF28C
:10015000090EBAE80F0013F0010F18BFFB1A43F0A5
:1001600001031847544C0000744C0000103A24BF9F
:1001700078C878C1FAD8520724BF30C830C144BF0C
:1001800004680C607047000000230024002500264E
:10019000103A28BF78C1FBD8520728BF30C148BFEA
:1001A0000B607047662904F06681642900F0548072
:1001B000002070471FB500F071FC040000200021F2
:1001C00003F0F4FAE0601FBD10B510BD00F066FD4D
:1001D0001146FFF7EFFF03F067FA00F084FD03B468
:1001E000FFF7F2FF03BC03F0E8F90000094880477D
:1001F00009480047FEE7FEE7FEE7FEE7FEE7FEE709
:10020000FEE7FEE7FEE7FEE704480549054A064B20
:10021000704700005D2C000831010008880E0020A6
:1002200088140020881000208810002070470000EB
:100230000FB41CB5074B06AA7B446946009005988D
:1002400000F0E1FB0020694600F0F0FB1CBC5DF80B
:1002500014FB0000F10700002DE9F04106460024E0
:1002600010687529314616A510D0AFF3008000281C
:1002700002DA404213A507E031688A0701D512A5CA
:1002800002E0490704D511A5012401E0AFF3008085
:1002900000210A2206F1240709E0B0FBF2FCB0FBC2
:1002A000F2F302FB1C00303078541846491C002839
:1002B000F3D123462A463046BDE8F04100F035B977
:1002C000000000002D0000002B00000020000000B6
:1002D0002DE9F0474FF0000A89460446C0F820A0F7
:1002E0002046E1688847002876D0252806D0D4E942
:1002F00001219047206A401C2062F1E7E168204616
:1003000000258847C4F81CA006460027C4F818A09A
:100310002A2E09D0304603F049F938B304EB870898
:10032000303EC8F8186019E059F8041B204604EB69
:1003300087029161E1688847012F064618D1E0697C
:10034000002820DA25F020051DE0D8F8180000EB81
:10035000800006EB40003038C8F818002046E168FD
:100360008847064603F022F90028EED1012F0AD073
:100370002E2E08D12046E16888477F1C0646022FB2
:1003800045F02005C4DBA069002803DA404245F0AF
:100390000105A061E80701D025F01005B6B1A6F16E
:1003A0004100192802D8203645F400654A463146F6
:1003B000204625604D46FFF7F5FE58B1012806D0CE
:1003C000ED1D25F0070000F1080989E704E005F1BB
:1003D000040985E730468AE7206ABDE8F08730B532
:1003E00005460B462A4613F8014B12F8010B08B1DB
:1003F000A042F8D01CB1002802D06D1CF1E72846BD
:1004000030BD40EA0103024630B59B0710D14FF0E2
:10041000013400E008C208C91D1B9D4315EAC41F32
:10042000F8D013F0FF0102F8011B0DD01B0AF8E70A
:1004300011F8013B002B02F8013B05D011F8013BFC
:10044000002B02F8013BF3D130BD032A40F230808B
:1004500010F0030C00F0158011F8013BBCF1020F05
:10046000624498BF11F801CB00F8013B38BF11F886
:10047000013BA2F1040298BF00F801CB38BF00F89D
:10048000013B11F0030300F0D682083AC0F0088067
:1004900051F8043B083A51F804CBA0E80810F5E7FE
:1004A000121D5CBF51F8043B40F8043BAFF30080E1
:1004B000D20724BF11F8013B11F801CB48BF11F856
:1004C000012B24BF00F8013B00F801CB48BF00F826
:1004D000012B70474FF0000200B513469446964634
:1004E000203922BFA0E80C50A0E80C50B1F1200147
:1004F000BFF4F7AF090728BFA0E80C5048BF0CC0F5
:100500005DF804EB890028BF40F8042B08BF704752
:1005100048BF20F8022B11F0804F18BF00F8012BC4
:10052000704770477047704770472DE9F0470D4698
:1005300099469246044600F124080168880604D5CD
:10054000E06921F01001216000E00120A84201DDF6
:10055000471B00E00027A1697A1902EB0900081A7D
:10056000A0612078C00602D42046AFF300800026A8
:1005700008E0D4E901211AF806009047206A401CDF
:10058000761C20624E45F4DB2078C0060AD5204652
:10059000AFF3008006E0D4E9012130209047206AC3
:1005A000401C2062381EA7F10107F4DC07E0D4E903
:1005B000012118F805009047206A401C2062281E7F
:1005C000A5F10105F3DC2046AFF30080207800069A
:1005D00002D50220BDE8F0870120FBE770472DE936
:1005E000FF4F0C461E464FF0FF378BB0D2E900019B
:1005F000DDF860800A908A46C1F30A5505B93D4688
:10060000002108464FF00000BAF1000F00F440004E
:1006100005DA00EB80004FF4400101EA50004FEA98
:100620009059B9F1010F00DDB9460A9850EA4A0025
:100630000ED044F61050A5F2FF3545432F14B8F103
:10064000000F1ED07542291E1EDDC9F100021CE0FC
:10065000B8F1010F4FF0000001D0302103E0F24368
:1006600005E02154401CB042FBDB30460022002153
:1006700021540B99C1F80880C1E900200FB0BDE8F2
:10068000F08FBD1B6D1CDEE74A4600DA694206A802
:1006900000F08EFA06AB93E8070003AB83E807008F
:1006A00050460A9900F068FB8DE80700A0F500505D
:1006B0001F3800900398002D0ADD42F21F014A46C0
:1006C0000844002303A90390684600F0D1FD09E027
:1006D000A0F500504A461F38002303A9039068463E
:1006E00000F0DBFD8DE807000004000C03D04FF0A4
:1006F000FF30410800E01046B8F1000F03D000229F
:10070000009215461EE0751E05D400F0CBF930327C
:1007100062556D1EF9D5B3460122084302D000226E
:100720007F1C04E02078302801D100227F1E002A9F
:10073000099784D01DE0112D07DA00F0B3F93032AB
:1007400062556D1C50EA0102F5D1084302D00098B1
:10075000C8B10EE00021681E05E0235C625C6354B2
:100760002254401E491C8142F7DBAB46A81B401EA9
:100770000990002004F80B000B98099AC0F8088033
:10078000C0E9002B7AE711264FF0000857E72DE962
:10079000F04F88460446D21D22F0070191B0D1E9FE
:1007A0000001CDE90A0102F0EDFE02460B98C00FF0
:1007B00001D02D2007E02068810701D52B2002E021
:1007C000202101EAC000032A099001D0072A05DB95
:1007D00003464146204600F0ABF90BE12078800645
:1007E00001D5E06900E00620B8F1650F814606D02A
:1007F000B8F1660F18D0B8F1670F70D131E0002062
:10080000B9F1110F009001DB112301E009F101039F
:100810000AAA01A90CA8FFF7E2FEDDE90C70002688
:1008200009F10105834647E001204B4600904FF057
:1008300000470AAA01A90CA8FFF7D1FEDDE90DB017
:100840000C995D46002610B909F101000D18B9EBAD
:10085000050003D4C0F1FF3609F10105A5EB09003D
:100860002BE0B9F1010F01DA4FF001090020B9F1D5
:10087000110F0090484601DD112300E003460AAA4B
:1008800001A90CA8FFF7ABFEDDE90C704D46002670
:100890008346207800070AD4AB4500DA5D4601A8FC
:1008A000012D04DD411911F8011C302907D04F45F5
:1008B00002DA17F1040F04DA012082460FE06D1E00
:1008C000EEE7002F02DCED1B3E4403E0781CA8425B
:1008D00000DD7D1CB81B00F1010A4FF000472078B5
:1008E000000703D4AA4501DB4FF0FF3A0021B7F11E
:1008F000004F0DF143088DF8431024D002202B2324
:10090000002F01DA7F422D230A21021EA0F10100EF
:1009100000DC5FB197FBF1FC97FBF1F201FB1C7C63
:1009200017460CF1300C08F801CDEEE7A8F10100F4
:1009300003702188090501D5452100E06521A0F15A
:10094000010800F8011C09980FA9A1EB0807FF1D79
:1009500000B10120411901EBEA70A1693844081A7D
:10096000401EA0612078C00602D42046AFF300806C
:10097000099828B1D4E901219047206A401C2062DF
:100980002078C00622D52046AFF300801EE0002E5E
:1009900004DBB34502DD01A8805D00E03020D4E92E
:1009A00001219047206A401C2062761CAAF10100B8
:1009B0005FEA000A0AD100F071F8C0680168405C83
:1009C000D4E901219047206A401C2062281EA5F12D
:1009D0000105DCDC07E0D4E9012118F8010B9047A0
:1009E000206A401C2062381EA7F10107F3DC204674
:1009F000AFF30080032011B041E6000001694A1CFA
:100A000002610878704700B58FB0CDE9013100214F
:100A1000059105497944CDE9031011466846FFF771
:100A200057FC0FB000BD0000E5FFFFFF0A6802F8A9
:100A3000010B0A60704710B5203AC0F00B80B1E896
:100A40001850203AA0E81850B1E81850A0E8185003
:100A5000BFF4F5AF5FEA027C24BFB1E81850A0E80C
:100A6000185044BF18C918C0BDE810405FEA827C26
:100A700024BF51F8043B40F8043B08BF7047D2073D
:100A800028BF31F8023B48BF11F8012B28BF20F8DE
:100A9000023B48BF00F8012B704700000048704738
:100AA000440E002030B5B0F10A024FEA900E71F109
:100AB00000034EEA817EB0EB0E0061EB91014FEA3C
:100AC000101E4EEA017E10EB0E0041EB11114FEAB1
:100AD000102E4EEA016E10EB0E0041EB11214FEA91
:100AE000104E4EEA014E10EB0E0041EB1141401842
:100AF00041F100014FEAD00040EA41704FEAD101D4
:100B000010EB80054FEA810444EA907444EB010441
:100B10006D1944EB0404521BA3414FF0000348BF7E
:100B20000A3200D530BD401C41F1000130BD00004B
:100B30002DE9F0411F46044603260168072A01F407
:100B4000006004DB08B116A505E016A503E008B1B6
:100B500015A500E015A521F010002060A069C01EB9
:100B6000A0610FB1401EA0612046AFF300804FB1DD
:100B7000D4E9012138469047206A401C2062C01CFD
:100B8000206206E0206AFAE7D4E9012115F8010B9A
:100B90009047761EF8D22046AFF30080BDE8F08182
:100BA0004E414E006E616E00494E4600696E660011
:100BB0002DE9F047814616468AB0354878440DC87D
:100BC0008DE80D0032487844801C03AC0DC884E8E1
:100BD0000D0041F69B300844372190FBF1F290FB69
:100BE000F1F5A5F1800501FB12041B3C02D564421E
:100BF000012000E00020DFF898A080460027FA449A
:100C0000AAF1BE0A0EE0E0070AD03246684607EBBA
:100C1000470101230AEB810100F03FFB8DE807004B
:100C200064107F1C002CEED1194F7F44AE3F19E0B9
:100C3000E80715D007EB04100DF1180A90E80E0034
:100C40008AE80E00C068F04201D198190890324637
:100C5000012306A903A800F020FB03AB83E80700EB
:100C60006D10641C002DE3D14FF00103324669463C
:100C7000B8F1000F03A802D000F0FAFA01E000F08A
:100C80000CFBC9E90001C9F808200AB0BDE8F087EB
:100C90006841000000487047240E00207546FFF7A9
:100CA000F9FFAE4605006946534620F00700854629
:100CB00018B020B5FFF7A8FABDE820404FF00006B5
:100CC0004FF000074FF000084FF0000B21F0070134
:100CD000AC46ACE8C009ACE8C009ACE8C009ACE877
:100CE000C0098D46704710B50446AFF3008020461A
:100CF000BDE81040FFF773BA4FF0013C50F8042BE9
:100D000051F8043B9A4221D1A2EB0C03934313EA1E
:100D1000CC1317D150F8042B51F8043B9A4215D14B
:100D2000A2EB0C03934313EACC130BD150F8042B22
:100D300051F8043B9A4209D1A2EB0C03934313EA06
:100D4000CC13DBD04FF00000704700BFD01A01BABF
:100D5000B1FA81F101F0180122FA01F0CB40C1F1A2
:100D60002001DBB2C0B2C01A2CFA01F3D11A9143B0
:100D700011EAC311E6D170475FEA400C08BF91F059
:100D8000000F4FEA8C234FEAC12243EA51514FEA48
:100D90001C5018BF00F5F0404FEA300018BF41F07A
:100DA00000415FEA6C5C00F02980BCF1FF3F08BFA6
:100DB00040F080407047130C06BF12044FF0100C37
:100DC0004FF0000C130E04BF12020CF1080C130FAD
:100DD00004BF12010CF1040C930F04BF92000CF13C
:100DE000020CD30F04BF52000CF1010C11464FF05E
:100DF0000002A0F11F00A0EB0C00704711F0004FA3
:100E000008BF704731F000413FF4D5AF0B0C06BF6F
:100E100009044FF0100C4FF0000C0B0E04BF090238
:100E20000CF1080C0B0F04BF09010CF1040C8B0F23
:100E300004BF89000CF1020CCB0F04BF49000CF178
:100E4000010CCCF12003A0EB0C0022FA03F302FA10
:100E50000CF241EA030100F10100704720F07F4CE1
:100E600080EA030023F07F47ACEB070303F57C53D4
:100E700000F0004003F1FF032DE980494FEA154BD4
:100E800009B44FEA144325EA0B4E24EA03480FF253
:100E9000042606EB132749083E785FEA320203FB7B
:100EA0000667C7F5000707FB06F64FEA54374FEA17
:100EB000D64606F1020607FB066CCCF1005C4FEA51
:100EC0001C472CEA074C07FB06F40CFB06F504EB69
:100ED00015464FEA961634BF00204FF000404FEA07
:100EE000D13706FB07FC4FEA1C4C0CFB0BF7D21B5F
:100EF00003FB0CF761EB07010CFB0EF7B0EB0740AF
:100F000072EB17420CFB08F734BFA2EB0742B2EBBF
:100F1000074261EB17414FEA0C444FEA910706FB89
:100F200007FC4FEA1C4C0CFB0BF7B0EBC74072EB15
:100F3000573203FB0CF734BFA2EBC742B2EBC742F8
:100F400061EB57310CFB0EF7B0EBC70072EB577239
:100F50000CFB08F734BFA2EBC702B2EBC70261EB90
:100F60005771039F4FEA816141EA921104EBCC046F
:100F70004FEAD1374FEA826206FB07FC42EA901241
:100F80004FEA80604FEA1C4C0CFB0BF7D21B03FBB3
:100F90000CF761EB07010CFB0EF7B0EB074072EBAF
:100FA00017420CFB08F734BFA2EB0742B2EB074233
:100FB00061EB17414FEA8C554FEA910704EB9C24F3
:100FC00006FB07FC4FEA1C4C0CFB0BF7B0EBC740D1
:100FD00072EB573203FB0CF734BFA2EBC742B2EB04
:100FE000C74261EB57310CFB0EF7B0EBC70072EB59
:100FF00057720CFB08F734BFA2EBC702B2EBC70273
:1010000061EB577115EB4C254FEA816141EA921172
:101010004FEA82624FEAD13742EA901206FB07FCA0
:1010200044F100044FEA80604FEA1C4C0CFB0BF7C4
:10103000D21B03FB0CF761EB07010CFB0EF7B0EBC7
:10104000074072EB17420CFB08F734BFA2EB0742D4
:10105000B2EB074261EB174115EB1C154FEA8131EA
:1010600041EA92414FEA823242EA90424FEA8030AE
:101070004FEA0C7644F1000448EA03434EEA0B4879
:101080004FF0000EB2EB080C71EB030724BF624671
:1010900039464EEB0E0E4FF0000B001852414941FD
:1010A0004BEB0B0BB2EB080C71EB03077BF1000B66
:1010B00024BF624639464EEB0E0E4FF0000B00186F
:1010C000524149414BEB0B0BB2EB080C71EB0307A0
:1010D0007BF1000B24BF624639464EEB0E0E51EAFF
:1010E000020718BF46F0010616EB0E7655F1000216
:1010F00054F1000103D5BDE88901BDE80088BDE8D1
:101100008901BDE80048B619524141EB0101A3F144
:101110000103704780807F7E7D7C7B7A797877764B
:1011200076757473727171706F6E6E6D6C6C6B6AC4
:101130006A69686867666665646463636261616062
:10114000605F5F5E5E5D5D5C5C5B5B5A5A595958DF
:101150005857575656555555545453535252525149
:10116000515050504F4F4F4E4E4D4D4D4C4C4C4B9F
:101170004B4B4A4A4A4949494848484747474746E6
:101180004646454545444444444343434342424222
:1011900042414141002B9C4630D477002BD01CB5F6
:1011A0004FEA370703B44FF010004FF01001BAF1C7
:1011B000000F06D0BCF1000FDCBF40F0080040F08B
:1011C00008014FF000000FBCBDE810400BF1010B0F
:1011D000BBF1010F08BF5FEA170722BF12F101023E
:1011E00011F101014FF0004143F1000300F0004014
:1011F00043EA00007047F9D35708D0E746EA0646AD
:1012000013F1400F4FEA16461FDD13F1200FDFBF29
:1012100016430A46002120335B42BED0C3F12007AB
:1012200046EA064602FA07F74FEA164646EA070676
:10123000C3F1200722FA03F201FA07F721FA03F1BA
:101240004FF0000342EA0702A7E746EA020646EA31
:1012500006464FEA164646EA0106BCBF46EA06467F
:10126000360C4FF000034FF000024FF0000194E7FE
:101270002DE9804C9A46934670B491E8380007C82F
:1012800031EA400C48BF34EA430C03D5FFF7E6FDD2
:10129000FFF780FFF0BCBDE8008C2DE9804C9A463A
:1012A000934670B491E8380007C810F0804F08BF2B
:1012B00013F0804F03D100F005F8FFF76BFFF0BC8F
:1012C000BDE8008C20F07F4780EA030023F07F4CCC
:1012D00007EB0C03A3F57C5300F00040A3F1FE03E1
:1012E00092F0000F00F0B38095F0000F00F07780CF
:1012F0002DE901494FEA11404FEA144621EA00481E
:1013000000FB06FC24EA064708FB06F607FB08F884
:1013100000FB07F718EB06484CEB164C4FEA124B54
:1013200018EB07484FEA15464CEB174022EA0B4EE4
:101330000BFB06FC25EA06470EFB06F607FB0EFE36
:101340000BFB07F71EEB064E4CEB164C4FF000065E
:101350001EEB074E4CEB174B18EB0B0840F100004F
:1013600018EB0E0B58EB000840F100008F1A4FF0FD
:1013700000013CBFC943661B14BFB5EB040C002140
:101380003CBFC943F61B4FEA17444EEA8E0E27EACC
:1013900004454FEA1C4704FB07622CEA074C05FB97
:1013A00007F70CFB05F604FB0CFC16EB074642EBBB
:1013B000174216EB0C4642EB1C421BEB060658EBA1
:1013C0000202414146EA9E0601D5BDE80189B619EF
:1013D000524141EB0101A3F10103BDE801894FEA4C
:1013E00014454FEA114724EA054621EA074C05FB5C
:1013F00007F406FB07F70CFB06F105FB0CFC11EBF1
:10140000074144EB17444FEA124711EB0C4144EB00
:101410001C4422EA074C05FB07F206FB07F70CFB0E
:1014200006F605FB0CFC16EB074642EB174216EBE3
:101430000C4642EB1C456A1854F1000148BF704746
:10144000B619524141EB0101A3F10103704795F038
:10145000000F37D04FEA11424FEA144721EA024603
:1014600024EA074C02FB07F106FB07F70CFB06F426
:1014700002FB0CFC14EB074441EB17414FEA154704
:1014800014EB0C4441EB1C4125EA074C02FB07F529
:1014900006FB07F70CFB06F602FB0CFC16EB0746F7
:1014A00045EB174516EB0C4645EB1C42121951F162
:1014B000000148BF7047B619524141EB0101A3F149
:1014C000010370474FEA14454FEA114724EA0546E5
:1014D00021EA074C05FB07F106FB07F70CFB06F2B8
:1014E0004FF0000605FB0CFC12EB074241EB1741E5
:1014F00012EB0C4251EB1C4148BF7047921841EB74
:101500000101A3F10103704721B1826842F0010299
:10151000826003E0826822F001028260704700006E
:1015200010B504461248844208D10121401501F04B
:10153000DDF80021601501F0D9F817E00D4884426C
:1015400008D10121001501F0D1F80021201501F08A
:10155000CDF80BE00848844208D10121C80301F00E
:10156000C5F800214FF4004001F0C0F810BD0000A4
:101570000024014000280140003C014001460020B9
:101580008A6802F004020AB1012000E000207047DE
:101590000146C86C80B270470246002013680B40B9
:1015A0000BB1012000E000207047014600208A684E
:1015B00002F008020AB1012000E00020704700009C
:1015C00030B502460020002350680F4C20400D79B2
:1015D0000C6844EA05242043506090680B4C20407E
:1015E000D1E902542C434D7944EA450420439060EC
:1015F000D06A20F470000C7C641EE4B2234340EAFD
:101600000350D06230BD0000FFFEF0FFFDF7F1FF98
:10161000F0B504460D4600200021092D11DDE068DB
:10162000A5F10A0606EB4607072606FA07F18843E6
:10163000A5F10A0606EB460603FA06F10843E06048
:101640000CE0206905EB4507072606FA07F18843F9
:1016500005EB450603FA06F108432061072A0FDA75
:10166000606B561E06EB86071F2606FA07F18843B5
:10167000561E06EB860605FA06F10843606322E073
:101680000D2A0FDA206BD61F06EB86071F2606FAF7
:1016900007F18843D61F06EB860605FA06F10843D4
:1016A000206310E0E06AA2F10D0606EB86071F2614
:1016B00006FA07F18843A2F10D0606EB860605FA45
:1016C00006F10843E062F0BD816841F008018160E5
:1016D000704721B1826842F4A002826003E0826810
:1016E00022F4A00282607047816841F004018160A9
:1016F0007047000030B10749096841F40001054A0C
:10170000116005E00349096821F40001014A1160F4
:1017100070470000082401402DE9F04104460D46C1
:1017200016461F462A2000F001FEC4F3072000F0F1
:10173000F1FDE0B200F0EEFDC6F3072000F0EAFD97
:10174000F0B200F0E7FD2B2000F0F0FDC5F307201C
:1017500000F0E0FDE8B200F0DDFDC7F3072000F087
:10176000D9FDF8B200F0D6FD2C2000F0DFFDBDE879
:10177000F08100BFFEE70000002000BF03E0002171
:10178000044A1154401CB0F5FA7FF8D30021024AF4
:10179000118070475106002040000020002000BF4B
:1017A00003E00021044A1154401CB0F5FA7FF8D33D
:1017B0000021024A118070474508002042000020A5
:1017C0007047000008B5684600F058F90121042070
:1017D00000F07CFF0121082000F078FF012110209B
:1017E00000F074FF0120ADF8000003208DF8020026
:1017F00010208DF803006946314800F067F8022098
:10180000ADF8000003208DF8020010208DF80300D1
:1018100069462B4800F05AF81020ADF8000003206C
:101820008DF8020010208DF803006946244800F06E
:101830004DF82020ADF8000003208DF802001020A4
:101840008DF8030069461F4800F040F84FF400503F
:10185000ADF8000003208DF8020010208DF8030081
:101860006946194800F032F84FF48040ADF80000A6
:1018700003208DF8020010208DF8030069461248FD
:1018800000F024F84FF40040ADF8000003208DF87C
:10189000020010208DF8030069460B4800F016F88E
:1018A0004FF40051084800F0E7F84FF48041064833
:1018B00000F0E2F84FF40041034800F0DDF808BD05
:1018C00000080140000C0140001001402DE9F041EA
:1018D000024600250026002000230024002791F85E
:1018E00003C00CF00F0591F803C00CF0100CBCF114
:1018F000000F03D091F802C04CEA050591F800C032
:10190000BCF1000F31D0146800202BE04FF0010C27
:101910000CFA00F3B1F800C00CEA03069E4220D195
:1019200083004FF00F0C0CFA03F7BC4305FA03FCDD
:101930004CEA040491F803C0BCF1280F06D14FF023
:10194000010C0CFA00FCC2F814C00AE091F803C0C4
:10195000BCF1480F05D14FF0010C0CFA00FCC2F8A5
:1019600010C0401C0828D1D31460B1F800C0BCF1ED
:10197000FF0F34DD546800202EE000F1080C4FF01A
:10198000010808FA0CF3B1F800C00CEA03069E4205
:1019900021D183004FF00F0C0CFA03F7BC4305FA7A
:1019A00003FC4CEA040491F803C0BCF1280F05D1F4
:1019B00000F1080C08FA0CF8C2F8148091F803C082
:1019C000BCF1480F07D100F1080C4FF0010808FAEC
:1019D0000CF8C2F81080401C0828CED35460BDE833
:1019E000F0810000F0B50A46002300240021002504
:1019F00000F00046B6F1004F02D11D4EF16901E042
:101A00001B4E7168C0F3034583B200F44016B6F56F
:101A1000401F08D121F07061154E766826F070667F
:101A2000134F7E6012E000F48016B6F5801F06D1D9
:101A3000032606FA05F4A14341F0706106E0460D65
:101A4000360103FA06F6B14341F0706122B1460D4A
:101A5000360103FA06F6314300F00046B6F1004FB6
:101A600002D1034EF16101E0014E7160F0BD000052
:101A70000000014041617047016170474FF6FF71FE
:101A80000180022181700421C17070472DE9FF5F40
:101A90000A21102001F07CFA0290029802F08CFBDF
:101AA000804602F0BFFA06464FF066321B4B02F04A
:101AB000C5F8044601F090FE82468346504602F087
:101AC0005BFBC5B2284602F077FB0446514602F0A4
:101AD00053FC8246584602F0A5FA8046104A114B44
:101AE00002F0AAF9104A114BCDE9000101F04EFFB6
:101AF000064600220E4B01F0A1FE044601F06CFEEA
:101B000083460C49504602F06BFB044602F018FB7A
:101B10000390584604B0BDE8F09F000066664A3F57
:101B2000E17A14AE47E1F63F22FDF675E09C713F85
:101B30000000394000007A4400BFFEE730B58BB0AA
:101B40000324002503E0002002A948556D1C1E2D2A
:101B5000F9D34FF40041C348FFF78CFFC2A001F056
:101B60003FFACAA22021102000F0A4FB40F2DC5072
:101B700001F048FD40F2DC5001F044FD3C20C7A1DB
:101B8000C7A30122CDE900101146022001F072FC2A
:101B9000FFF704FE4FF40041B248FFF76DFF4FF42A
:101BA0007A7001F02FFD4FF40041AE48FFF762FF5D
:101BB0001FE0C0A001F014FAC4F13300C0B20A90D3
:101BC0000AAA3021052000F075FBBEA230211020AA
:101BD00000F070FBBDA001F04BFA3220AFA1BDA315
:101BE0000122CDE900101146022001F043FC00B9AA
:101BF0000024201EA4F10104DBD1FFF7CFFD4FF438
:101C000000419848FFF738FF4FF47A7001F0FAFC72
:101C10004FF400419348FFF72DFF03241FE0AEA0CF
:101C200001F0DEF9C4F13300C0B20A900AAA4021E3
:101C3000052000F03FFBAEA24021102000F03AFB4F
:101C4000AFA001F015FA3220A2A1B1A30222CDE982
:101C500000101146104601F00DFC00B90024201EB2
:101C6000A4F10104DBD1FFF799FD4FF400417D4859
:101C7000FFF702FF4FF47A7001F0C4FC4FF400410B
:101C80007848FFF7F7FE032435E0A4A001F0A8F997
:101C9000C4F13300C0B20A900AAA5021052000F016
:101CA00009FBA7A25021102000F004FBA8A001F01E
:101CB000DFF92C2079A1B0A30122CDE90010114653
:101CC000022001F0D7FBA8B900244FF480416548F9
:101CD000FFF7D0FE4FF400416248FFF7CDFE4FF40E
:101CE00000516048FFF7C8FEA7A26021102000F055
:101CF000E1FA00E00324201EA4F10104C5D1FFF79E
:101D00004DFD4FF400415748FFF7B6FE4FF47A708F
:101D100001F078FC4FF400415248FFF7ABFE03247A
:101D20003FE0A1A001F05CF9C4F13300C0B20A9019
:101D30000AAA7021052000F0BDFA9EA27021102091
:101D400000F0B8FAA14801F093F9322053A1A0A302
:101D50000122CDE900101146022001F08BFBA0B951
:101D600000244FF480413F48FFF784FE4FF40041C8
:101D70003C48FFF781FE4FF400513A48FFF77CFEE4
:101D800097A28021102000F095FA4FF47A7001F0AC
:101D900039FC4FF47A7001F035FC4FF47A7001F0A1
:101DA00031FC201EA4F10104BBD1FFF7F7FC4FF476
:101DB00000412C48FFF760FE4FF47A7001F022FCDE
:101DC0004FF400412748FFF755FE032433E08CA071
:101DD00001F006F9C4F13300C0B20A900AAA9021BA
:101DE000052000F067FA8AA29021102000F062FA24
:101DF0008BA001F03DF9642028A192A30122CDE936
:101E000000101146022001F035FBA0B900244FF468
:101E100080411448FFF72EFE4FF400411148FFF7B0
:101E20002BFE4FF400510F48FFF726FE8AA2A02197
:101E3000102000F03FFA201EA4F10104C7D1FFF7E3
:101E4000ADFC4FF400410748FFF716FE4FF47A70DF
:101E500001F0D8FB4FF400410248FFF70BFE0324CA
:101E60000BB030BD00100140BCECB2E2204E42206D
:101E7000C4A3BFE9C9CFB5E7CAB1B7B5BBD8B5C42C
:101E8000CAFDBEDD2E2E2E0D0A0000007265737491
:101E9000617274696E672E2E2E0000000000000033
:101EA0004C656176696E67207468652042524F4DBB
:101EB00000000000B7A2CBCD2041542E2E2E0D0ADB
:101EC0000000000041542E2E2E00000041540D0A47
:101ED000000000004F4B0000B2E9D1AFC9E8B1B833
:101EE0002050445020B5D8D6B72E2E2E0D0A000013
:101EF00041542B434750414444523D3100000000BF
:101F000041542B434750414444523D310D0A000097
:101F10002B434750414444523A000000C5E4D6C325
:101F2000B5E7D0C520494F5420C6BDCCA8B5D8D6FA
:101F3000B7BACDB6CBBFDABAC52E2E2E0D0A000029
:101F4000636F6E6E656374696E672E2E2E000000DF
:101F500041542B514D544F50454E3D302C226D7104
:101F600074742E637477696E672E636E222C313819
:101F700038330D0A000000002B514D544F50454E90
:101F80003A20302C300000004D51545420636F6EC5
:101F90006E656374696F6E20686173206265656E3B
:101FA000206F70656E000000C1ACBDD34D5154541C
:101FB0000D0A0000636F6E6E656374696E6720744E
:101FC0006F2074686520616570200000404D000836
:101FD0002B514D54434F4E4E3A20302C302C300074
:101FE0004D51545420636F6E6E656374696F6E203B
:101FF0006861732066696E6973686564000000003B
:10200000B6A9D4C44D515454D6F7CCE20D0A000001
:102010007375627363726962696E67202E2E2E007B
:1020200041542B514D545355423D302C312C226498
:102030006F776E6C6F61645F666C6167222C300D28
:102040000A0000002B514D545355423A20302C3198
:102050002C302C30000000004D5154542073756218
:102060006372696265206861732066696E6973686E
:102070006564000030B587B004460D46224605A1D0
:102080006846FEF7D5F869462846FEF7BAF907B064
:1020900030BD00002564000070B50646EF2340F215
:1020A0003F1200210846FFF737FB002408E0002517
:1020B00003E0304600F01EF96D1CF02DF9D3641CCE
:1020C000B4F5A07FF3D370BD2DE9FF4F85B08146F5
:1020D0008A460020049003900798A0EB0905089811
:1020E000A0EB0A06CDF80890CDF804A0002D01DD84
:1020F000012705E00DB9002702E04FF0FF376D42E0
:10210000002E02DD4FF0010806E016B94FF000087E
:1021100002E04FF0FF387642B54201DD2C4600E088
:1021200034464FF0000B1DE0DDE9011000F020F80F
:102130000498284404900398304403900498A042E3
:1021400005DD0498001B049002983844029003981F
:10215000A04205DD0398001B0390019840440190C4
:102160000BF1010B601C8345DED909B0BDE8F08F8F
:1021700070B504460D462B46224629462046FFF7F9
:10218000CBFA0248006800F0B5F870BD740000207A
:102190002DE9F04104460D4616461F462B463246B1
:1021A00029462046FFF790FF3B4622462946204617
:1021B000FFF78AFF3B46324639462046FFF784FF49
:1021C0003B46324629463046FFF77EFFBDE8F081A8
:1021D0002DE9F84F05460F4616469A46AB4632485B
:1021E00000680090B5F5987F01D8E02F01D9BDE8CF
:1021F000F88FA6F12000C6B207F10F03EA1D394699
:102200002846FFF789FABAF1000F29D1002424E00B
:1022100004EB0610254911F800904FF0000815E076
:1022200009F0010018B120490098086003E0204837
:1022300000681D4908601C48006800F05BF84FEA20
:1022400069096D1C08F1010000F0FF08B8F1080FE2
:10225000E6DB5D467F1C601CC4B2102CD8DB1EE0A0
:1022600000241AE004EB0610104911F800904FF01A
:1022700000080DE009F0010020B1391905EB080054
:10228000FFF776FF4FEA690908F1010000F0FF0847
:10229000B8F1080FEEDB601CC4B2102CE2DB02497F
:1022A0000098086000BFA2E7740000207A4400088C
:1022B0007000002070B505460E46144615E0B5F5D1
:1022C000987F01D900251036E02E06D9002005465A
:1022D00006464FF47840FFF7DFFE227800233146B0
:1022E0002846FFF775FF0835641C20780028E6D1E2
:1022F00070BD000010B5044601210548FFF7BCFB86
:10230000C4F3072000F01EF8E0B200F01BF810BD87
:10231000000C014010B5044601210348FFF7ACFB57
:10232000204600F00FF810BD000C014010B5044627
:1023300001210348FFF79EFB204600F003F810BD83
:10234000000C014010B50446204600F08DFA10BD87
:1023500008B50121082000F0B9F941F20300ADF8F9
:10236000000010208DF8030003208DF8020069465C
:102370008B48FFF7ABFA4FF203018948FFF77CFB6C
:1023800000F02EFA02218648FFF774FB142001F0BA
:1023900039F902218248FFF76FFB142001F032F96E
:1023A0004FF480517E48FFF767FBCF20FFF7BEFF59
:1023B0000020FFF7AFFFD920FFF7ACFF3020FFF779
:1023C000A9FFED20FFF7B2FF6420FFF7A3FF032072
:1023D000FFF7A0FF1220FFF79DFF8120FFF79AFF74
:1023E000E820FFF7A3FF8520FFF794FF1020FFF7F9
:1023F00091FF7820FFF78EFFCB20FFF797FF392062
:10240000FFF788FF2C20FFF785FF0020FFF782FFF2
:102410003420FFF77FFF0220FFF77CFFF720FFF754
:1024200085FF2020FFF776FFEA20FFF77FFF0020DF
:10243000FFF770FF0020FFF76DFFC020FFF776FF6A
:102440002120FFF767FFC120FFF770FF1220FFF781
:1024500061FFC520FFF76AFF3220FFF75BFF3C20DA
:10246000FFF758FFC720FFF761FFC120FFF752FFBA
:102470003620FFF75BFF7820FFF74CFF3A20FFF78D
:1024800055FF5520FFF746FFB120FFF74FFF002013
:10249000FFF740FF1820FFF73DFFB620FFF746FF8C
:1024A0000A20FFF737FFA220FFF734FFF220FFF7E3
:1024B0003DFF0020FFF72EFF2620FFF737FF01200A
:1024C000FFF728FFE020FFF731FF0F20FFF722FF83
:1024D0002020FFF71FFF1E20FFF71CFF0920FFF73A
:1024E00019FF1220FFF716FF0B20FFF713FF5020F4
:1024F000FFF710FFBA20FFF70DFF4420FFF70AFF98
:102500000920FFF707FF1420FFF704FF0520FFF75E
:1025100001FF2320FFF7FEFE2120FFF7FBFE002036
:10252000FFF7F8FEE120FFF701FF0020FFF7F2FEC2
:102530001920FFF7EFFE1920FFF7ECFE0020FFF750
:10254000E9FE1220FFF7E6FE0720FFF7E3FE2D204D
:10255000FFF7E0FE2820FFF7DDFE3F20FFF7DAFE61
:102560000220FFF7D7FE0A20FFF7D4FE0820FFF76E
:10257000D1FE2520FFF7CEFE2D20FFF7CBFE0F204A
:10258000FFF7C8FE1120FFF7D1FE782001F03AF8DE
:102590002920FFF7CBFE0020FFF77EFD08BD0000DD
:1025A000000C014000BFFEE77047000070B500213D
:1025B00000230F22C47804B3154C246804F4E064AB
:1025C000C4F5E064210AC1F10403CA40447804FA66
:1025D00003F184781440214309010E4C0678A1557B
:1025E000047804F01F050124AC4005786D11AD009E
:1025F00005F1E025C5F8004109E0047804F01F0565
:102600000124AC40044D0678761145F8264070BD93
:102610000CED00E000E400E080E100E0024901434D
:10262000024A1160704700000000FA050CED00E05E
:1026300070472DE9F04105460B461646002400225E
:10264000002100201F4601E07F1C521C97F800C0AB
:10265000BCF1000FF8D1002416E000210CE005EBDE
:10266000040C1CF801C013F80180C44501D10120FD
:1026700001E0002002E0491C9142F0D300BF9142EA
:1026800001D1BDE8F081641CA6EB020CA445E4D89E
:1026900000BFF6E701460020034A506820F440409E
:1026A00008435060704700000010024029B1064AFC
:1026B000D2690243044BDA6104E0034AD2698243DF
:1026C000014BDA61704700000010024029B1064A50
:1026D00092690243044B9A6104E0034A926982437F
:1026E000014B9A61704700000010024029B1064A70
:1026F000D2680243044BDA6004E0034AD2688243A2
:10270000014BDA60704700000010024030B5002134
:102710000022002400232D4D6D6805F00C0121B12D
:10272000042905D0082923D105E0294D056022E0C0
:10273000274D05601FE0254D6D6805F47012234D8F
:102740006D6805F48034022505EB92421CB9214DD9
:10275000554305600BE01D4D6D6805F400351DB156
:102760001C4D5543056002E0194D5543056002E0DC
:10277000174D056000BF00BF144D6D6805F0F001F6
:102780000909154D6B5C0568DD4045600F4D6D68AE
:1027900005F4E061090A104D6B5C4568DD40856019
:1027A0000A4D6D6805F46051C90A0B4D6B5C4568B4
:1027B000DD40C560054D6D6805F44041890B074D4E
:1027C0006B5CC568B5FBF3F5056130BD00100240D8
:1027D00000127A0000093D00280000203800002087
:1027E00000B587B001210820FFF770FF01218803A1
:1027F000FFF75CFF4FF46040ADF8180018208DF82B
:102800001B0003208DF81A0006A91548FFF75EF893
:102810000020ADF804004FF48270ADF806000020EF
:10282000ADF808000220ADF80A000120ADF80C0058
:102830004002ADF80E000020ADF81000ADF8120017
:102840000720ADF8140001A9064800F051F8012155
:10285000044800F033F8FF2000F006F807B000BD90
:10286000000C01400038004070B50546002405E02A
:10287000601CC4B2C82C01DD002070BD02210E48CE
:1028800000F028F80028F3D029460B4800F02EF875
:10289000002405E0601CC4B2C82C01DD0020ECE778
:1028A0000121054800F016F80028F3D0024800F096
:1028B0001AF8C0B2E1E700000038004021B10288F8
:1028C00042F04002028004E002884FF6BF731A40D3
:1028D000028070470246002013890B400BB1012093
:1028E00000E0002070470146888970478181704769
:1028F00010B50022028802F441520B884C88234311
:102900008C882343CC8823430C8923434C8923435D
:102910008C892343CC8923431A430280838B4FF253
:10292000FF74234083830B8A038210BD704700002D
:1029300070B58AB01C2103A8FDF7CCFD00264E49D6
:102940004E480068FFF796FBFFF7A0F84C49086077
:102950000846006801F066FB044622460B4649A182
:102960005848FDF765FC142057A158A30122CDE972
:1029700000101146022000F07DFD88B956495748E5
:10298000FDF73FFD56A000F02BFB5A4802235AA248
:102990005AA10090514800F05BFE564800F020FB21
:1029A000484800F065FB56A2C0211020FFF782FCCA
:1029B000142045A155A30122CDE9001011460220A3
:1029C00000F058FD40BB00264FF480415048FFF70F
:1029D00051F84FF400414E48FFF74EF84FF40051C4
:1029E0004B48FFF749F800204A4908704AA2C02125
:1029F0001020FFF75FFC2248006801F013FB04463B
:102A000022460B4647A103A8FDF712FC03AAC021EA
:102A10007820FFF74FFC16E04FF480413C48FFF769
:102A20002BF84FF400413A48FFF726F84FF40051D5
:102A30003748FFF71FF80020364908703EA2C02132
:102A40001020FFF737FC3E4800783E49086009E057
:102A500000211C483B4A126881543A480068401CD7
:102A60003849086037480068B0F5B17FF0D9FEF703
:102A700095FE0AB070BD0000840000200C0000200C
:102A80001000002041542B514D545055423D302CE4
:102A9000302C302C302C2275706C6F61645F646157
:102AA00074615F666C6167222C227B2254657374AB
:102AB0005F666C6167223A22252E3266227D220DE6
:102AC0000A00000000020020000000002B514D54BD
:102AD000524543563A000000450800206303002099
:102AE0007361646A6C6B6173646A6B736B6C646A48
:102AF00000000000570500200D0A00002C00000017
:102B000073656E642E2E2E2E000000004F4B0000C9
:102B1000001001400800002073656E64206F6B2177
:102B20000000000054656D70657261747572653ADD
:102B300020252E32660000004661696C20212000AD
:102B4000000000200400002010B500F001F810BDC6
:102B50000CB50020019000903348006840F48030AC
:102B60003149086000BF3048006800F40030009030
:102B70000198401C0190009818B90198B0F5A06F19
:102B8000F1D12948006800F4003010B10120009014
:102B900001E0002000900098012843D123480068FC
:102BA00040F01000214908600846006820F003004A
:102BB00008600846006840F0020008601A48406853
:102BC000194948600846406848600846406840F433
:102BD000806048600846406820F47C1048600846E1
:102BE000406840F4E81048600846006840F0807093
:102BF000086000BF0C48006800F000700028F9D0A1
:102C00000948406820F003000749486008464068CA
:102C100040F00200486000BF0348406800F00C002C
:102C20000828F9D10CBD000000100240002002402D
:102C3000042808D14FF0E021096941F004014FF068
:102C4000E022116107E04FF0E021096921F0040161
:102C50004FF0E022116170477047000010B5134833
:102C6000006840F0010011490860084640681049BA
:102C700008400E494860084600680E4908400B4964
:102C800008600846006820F4802008600846406814
:102C900020F4FE0048604FF41F008860FFF754FFE7
:102CA0004FF000600449086010BD000000100240B1
:102CB0000000FFF8FFFFF6FE08ED00E010B501216F
:102CC000284800F0A0F800284AD00121254800F04B
:102CD0008BF82548007820B123480078401E22490F
:102CE00008702248007820B120480078401E1F4913
:102CF00008701F48007820B11D480078401E1C490C
:102D000008701948007820B117480078401E16490D
:102D100008701848007820B116480078401E154900
:102D200008701548007820B113480078401E1249F9
:102D30000870124800684FF6FA71884207D20F48AF
:102D40000068401C0D49086001200D4908700D48BD
:102D50000078C82804DA0B480078401C094908703C
:102D600010BD000000040040470000207F0000204C
:102D70004600002080000020810000207800002014
:102D8000820000207C0000207FB505460C46012112
:102D90000220FFF78BFCADF80850ADF8044000208E
:102DA000ADF80A00ADF8060001A90E4800F046F89B
:102DB000012211460B4800F037F81D208DF8000065
:102DC00000208DF8010003208DF8020001208DF80D
:102DD00003006846FFF7EAFB0121024800F007F80C
:102DE0007FBD000000040040CA430282704721B149
:102DF000028842F00102028004E002884FF6FE736E
:102E00001A400280704730B502460020002300249B
:102E1000158A05EA0103958905EA010413B10CB18D
:102E2000012000E0002030BD1AB183890B4383816B
:102E300002E083898B43838170470000002202886F
:102E40001D4B98420ED01D4B98420BD0B0F1804FD5
:102E500008D01B4B984205D01A4B984202D01A4B0F
:102E6000984204D14FF68F731A404B881A43174B80
:102E7000984207D0164B984204D04FF6FF431A40B1
:102E8000CB881A4302808B8883850B8803850A4B85
:102E900098420BD0094B984208D00E4B984205D06F
:102EA0000D4B984202D00D4B984201D10B7A03860C
:102EB0000123838270470000002C01400034014050
:102EC0000004004000080040000C004000100040DA
:102ED000001400400040014000440140004801400F
:102EE00000B585B001214FF40170FFF7EFFB4FF4FF
:102EF0000040FFF7CFFB1848FEF712FB00200090C0
:102F00008DF804008DF805004FF460200290002039
:102F1000039001208DF8100069460F48FEF750FB22
:102F20000120FEF7E7FB01210B48FEF7EDFA0A4806
:102F3000FEF7CAFB00BF0848FEF737FB0028FAD1AE
:102F40000548FEF7D1FB00BF0348FEF717FB00283A
:102F5000FAD105B000BD00000024014010B50446C0
:102F60000723012221460948FEF752FB01210748A9
:102F7000FEF7AFFB00BF02210448FEF70DFB00285F
:102F8000F9D00248FEF704FB10BD00000024014008
:102F90002DE9F04107460C460025002608E038469A
:102FA000FFF7DCFF0544052000F02CFB701CC6B2C7
:102FB000A642F4DBB5FBF4F080B2BDE8F08100007E
:102FC00010B504462146054800F0E9F900BF80210C
:102FD000024800F017F90028F9D010BD0038014070
:102FE00010B5044603E02078FFF7EAFF641C207860
:102FF0000028F8D110BD000010B540F225510F484F
:1030000000F000F9C8B10D4800F0C4F9C4B20C4892
:103010000C49098844540B480088401C0949088021
:1030200008460088B0F5FA7F01DB00200880012007
:103030000549087002200549087010BD003801409C
:1030400051060020400000204900002046000020DA
:1030500010B50446E1B2054800F0A1F900BF802197
:10306000024800F0CFF80028F9D010BD004400401D
:1030700010B5044603E02078FFF7EAFF641C2078CF
:103080000028F8D110BD00001FB5044600F0A2F8DA
:1030900000F01EF800940020ADF80400ADF8060022
:1030A000ADF80800ADF80C000C20ADF80A00694638
:1030B000064800F003F9012240F22551034800F0D0
:1030C000D8F80121014800F091F81FBD00440040EC
:1030D00008B50420ADF8000003208DF80200182088
:1030E0008DF8030069461248FEF7F0FB0820ADF8A2
:1030F000000004208DF8030069460D48FEF7E6FB4A
:103100002020ADF8000003208DF8020018208DF873
:10311000030069460748FEF7D9FB4020ADF80000E0
:1031200004208DF8030069460248FEF7CFFB08BD76
:10313000000801400014014010B540F22551154827
:1031400000F06DF820B3134800F024F9C4B2204613
:10315000FFF736FF10481149098844540F49098880
:10316000405C542802D101200D4908700B480088AA
:10317000401C0A49088008460088B0F5FA7F01DB48
:1031800000200880012007490870022006490870C5
:1031900010BD00000044004045080020420000200F
:1031A000520000204B0000204700002008B54FF4DB
:1031B000E060FFF733FA26208DF8000002208DF83A
:1031C00001008DF8020001208DF803006846FFF72A
:1031D000EDF908BD10B5012144F23500FFF776FA8C
:1031E00001214FF00210FFF761FA10BD21B1828971
:1031F00042F40052828104E082894DF6FF731A4046
:103200008281704702460020B1F5007F00D100BFE7
:1032100013880B400BB1012000E00020704770B50F
:103220000246002400230025002040F66A16B14221
:1032300000D100BFC1F3421501F01F03012606FAB9
:1032400003F3012D02D19689334006E0022D02D10D
:10325000168A334001E0968A33400C12012606FAA2
:1032600004F41688344013B10CB1012000E00020B2
:1032700070BDF0B50346002400260025002040F66E
:103280006A17B94200D100BF1846C1F3421401F0D9
:103290001F06012707FA06F5012C01D10C3004E0C6
:1032A000022C01D1103000E014301AB107682F430E
:1032B000076002E00768AF430760F0BD2DE9F04703
:1032C00086B005460E460024A24600BFA146002750
:1032D000B08900B100BF2F462C8A4CF6FF70044025
:1032E000F08804432C82AC894EF6F3100440B08879
:1032F00031890843718908430443AC81AC8A4FF695
:10330000FF400440B0890443AC8201A8FFF7FEF9F6
:103310001F48874202D1DDF810A001E0DDF80CA0C3
:10332000A88900F4004040B10AEBCA0000EB0A1083
:1033300031684900B0FBF1F807E00AEBCA0000EB86
:103340000A1031688900B0FBF1F86420B8FBF0F096
:1033500004012009642101FB1089A88900F40040C0
:1033600040B1322000EBC900B0FBF1F000F00700E3
:10337000044308E0322000EB09106421B0FBF1F0B7
:1033800000F00F0004432C8106B0BDE8F087000078
:103390000038014001468888C0F308007047C1F337
:1033A00008028280704700BFFEE7000010B586B0BB
:1033B0000446012144F20500FFF788F900210420AA
:1033C000FEF710FB4FF40070ADF8140003208DF8E9
:1033D000160018208DF8170005A91C48FEF776FA8C
:1033E0004FF48060ADF8140004208DF8170005A993
:1033F0001648FEF76BFA25208DF8000000208DF8A6
:1034000001008DF8020001208DF803006846FFF7E7
:10341000CDF801940020ADF80800ADF80A00ADF831
:103420000C00ADF810000C20ADF80E0001A9084802
:10343000FFF744FF012240F225510548FFF719FF2D
:1034400001210348FFF7D2FE06B010BD000801407D
:103450000038014010B50446FFF7BCFE00210820EB
:10346000FEF7C0FAFFF734FE2046FFF70DFEFFF728
:103470009DFE10BD2DE9FC5F80460D4691469A46A3
:10348000DDF830B0002001900090B8F1010F03D0BA
:10349000B8F1020F0ED106E0314C324E324F4FF4EC
:1034A000FA70009006E0314C314E324F4FF4FA7012
:1034B000009000BF00BF30490D9808702CE02078C4
:1034C00050B3307840BB00202070022D0ED1514601
:1034D0003846009AFFF7ADF8F0B159463846009AE1
:1034E000FFF7A7F8C0B10120019015E0012D13D11D
:1034F00051463846009AFFF79CF810B10120019020
:103500000AE0B9F1020F07D159463846009AFFF791
:1035100090F808B101200190019818B91648007878
:103520000028CCD11448007838B90120134908701C
:1035300041031348FEF79EFA07E04FF4005110488C
:10354000FEF79AFA00200D490870642000F05AF83E
:103550000A48007810B10120BDE8FC9F0020FBE77D
:103560004900002046000020510600204B000020AA
:1035700047000020450800208100002009000020AD
:1035800000100140490050EAC12018BF04204A0D34
:1035900018BF40F0010040F2FF72B2EB515F08BF6C
:1035A00040F00200012808BF0520704730380A2883
:1035B00001D20120704700207047014600BF7047CC
:1035C00010B56FF00400FFF733FB0A4800680A49A2
:1035D000B0FBF1F0094908700846007800EB4001A3
:1035E000C1EBC0104FF6FF7101EAC000044908802A
:1035F00010BD00001400002000127A003C000020E2
:103600003E0000200146114A12884A434FF0E02351
:103610005A6100229A611A46126942F001021A6147
:1036200000BF4FF0E022106900F001021AB100F46F
:103630008032002AF5D04FF0E022126922F0010218
:103640004FF0E0231A6100229A6170473E0000208B
:103650002DE9F05F06468A4617469846DDF828B001
:1036600034464FF000090DE051462046FCF7B7FE06
:10367000044614B90120BDE8F09F641C09F1010063
:103680004FFA80F9C145EFDD39462046FCF7A7FE29
:1036900005460DB90220EEE72A1B21465846FCF7E5
:1036A000D4FE0020E7E70000DAB04FF4B27101A8C1
:1036B000FCF710FFFEF786F8FFF782FF4FF4E130CA
:1036C000FFF774FE4FF4E130FFF7C4FE41F61F41EF
:1036D00040F2E730FFF758FBFEF73AFEFFF700FC39
:1036E0000020FEF7D9FC4FF4FC601E490860F0236F
:1036F0004FF4A07200210846FEF74AFD4FF6E07035
:103700001849086010211848FEF7B6F929E0174853
:10371000007838B1002015490870FEF70FFA14A0A0
:10372000FFF75EFCFFF704F940F2DC50FFF76AFF99
:1037300040F2DC50FFF766FF40F2DC50FFF762FF1B
:103740001448007868B11448007850B90020114935
:10375000087012A0FFF744FC1348FFF741FCFEF786
:103760000BF8D4E774000020000801400800002096
:10377000C7EBB7A2CBCDD3A2CEC4D7D6B7FBA3ACF1
:10378000B2A2D2D4BBD8B3B5BDE1CAF8A3A10D0A89
:10379000000000004900002046000020D6D0B6CF2F
:1037A000B4ABCBCD200D0A005106002010B5002986
:1037B0000AD00878002807D005487844FDF79CFA1D
:1037C000002801D0002010BD0248784410BD000040
:1037D0001E1600001616000021F00042A2F16052F1
:1037E000B2F5801F01F0004328BFD2F17F6C0BD9E6
:1037F0005FEA001C43EAC20242EB507018BF7047F8
:1038000028BF20F001007047B2F5801FBCBF1846EA
:1038100070474FEA410C1CF5001F02D2084600F029
:10382000A6BD70B500F0B4FA00000089FFF7F6BF3E
:103830004FF00040A0F580007047000010B591EAFD
:10384000030F48BF83F0004300F10A83841A71EB31
:10385000030C05D2121943EB0C03001B61EB0C01A6
:10386000DFF824E14FEA1154A4EB135C1EEA430F86
:1038700018BF9EEA445F73D023EA0E03DCF1200EEA
:1038800021EA045143F4801332D322FA0CFE10EBE8
:103890000E0023FA0CFE41EB0E01CCF1200E03FAD0
:1038A0000EFE10EB0E0051F10001B1F5801FCCF1BE
:1038B000200E32D201EB045112FA0EF2BDE8104094
:1038C00058BF7047401C38BF5FEA420218BF7047BC
:1038D000002814BF20F0010041F100014FEA41032C
:1038E00013F5001F38BF7047A1F1C04100F09EBA28
:1038F000012A43EB0302ACF1200CDCF11F0E32BFB6
:103900004FF0000E23FA0CF310EB030041EB0451CF
:10391000B4EB115FD0D0A1EB045101F5801149083F
:103920005FEA300001EB04510ED350F1000038BFC4
:1039300012FA0EFE08D1BDE81040C9E7401C38BF9E
:103940005FEA4202CAD1C3E7BDE810404FEA410333
:1039500013F5001F38BF7047A1F1C04100F066BAEF
:103960009EEA445F08D011EA5E0FBDE8104004BF34
:1039700001F0004100207047BDE8104070B500F034
:1039800007FA00BF64FBBE3E0000E0FF2DE9C04126
:1039900030B4DFF8A0C23CEA111418BF3CEA13149B
:1039A00000F0EC8081EA03051CEA111444EAD574A6
:1039B00018BF1CEA131500F0C780A4EB05044FF0F4
:1039C000004545EAC12145EAC32341EA505143EA93
:1039D000525304F17F74994204F500344FEAC02039
:1039E0004FEAC22208BF904200F09C804FEA136564
:1039F0000FF24016765D4FEA134506FB05F7C7F157
:103A0000807706FB07F74FEAD737A7FB03687642B4
:103A1000C8F58038A7FB06CE38BFA8F1010807FB20
:103A200008E64FF0000EA6FB028CE6FB03CEDCF1AD
:103A3000000CCEF1004E38BFAEF1010EA6FB0C58C3
:103A40004FF000074FF00005E6FB0E87A1FB08C60C
:103A5000A0FB07CE16EB0E0645F10005E1FB07655E
:103A600015F1E04E7EBFA4F580345FEA46066D4155
:103A700016F1800745F100054FEA17274FEA066661
:103A800047EA0567A6F1DE46B6F1805F4FEA1525E5
:103A90001FD9384624F0010C05EBC471BCF1FE6F50
:103AA00001EB0C1102D8F0BCBDE8008124425CBFE0
:103AB00001F5801E9EEAC47F02D4F0BCBDE80081FF
:103AC000244238D4F0BCA1F1C041BDE8004100F06F
:103AD000ADB94FEAD22242EA43524FEAD323A7FBC1
:103AE00002864FEAD02040EA415007FB03661EEAF7
:103AF0000E0F4FEAD12105FB026658BFA6EB005618
:103B0000B6EB00564FEA520E4EEAC37E18EB0E0E8D
:103B100056EB530EBDD518EB02085E417F1C55F1E4
:103B20000005B6E74FF480154FF000074FF0000690
:103B30004FF00008ADE7F0BC4FF0000001F1C041CC
:103B400001F00041BDE8008111EA0C1F0CEA1315D9
:103B500000D00CE013EA0C1F00F025804FF00000AD
:103B6000F0BC81EA030101F00041BDE80081F0BC36
:103B7000BDE8004181EA030100F058B9F0BCBDE89E
:103B8000004170B500F004F9097EFC3E00F007B872
:103B900081EA03014FF0000001F00041704781EA23
:103BA000030100F043B9F0BCBDE800414FF0000054
:103BB00021497047FFFDFBF9F7F5F4F2F0EEEDEB6C
:103BC000E9E8E6E4E3E1E0DEDDDBDAD8D7D5D4D31B
:103BD000D1D0CFCDCCCBCAC8C7C6C5C4C2C1C0BF67
:103BE000BEBDBCBBBAB9B8B7B6B5B4B3B2B1B0AF6D
:103BF000AEADACABAAA9A8A8A7A6A5A4A3A3A2A151
:103C0000A09F9F9E9D9C9C9B9A999998979796950B
:103C100095949393929191908F8F8E8E8D8C8C8BA7
:103C20008B8A89898888878786858584848383822F
:103C3000828181800000FF070000F87FDFF848C123
:103C400070B51CEA111E1EBF1CEA13159EEA0C0F6C
:103C500095EA0C0F00F06F8081EA030423EA4C130D
:103C60004EEAD47E21EA4C1141F4801143F48013D2
:103C7000AE44A1FB024CA0FB0365AEF17F7E36197A
:103C800055EB0C05A1FB034C4CF10003A0FB021CFF
:103C900016EB0C06654153F10003094218BF46F0CC
:103CA000010613F4007F0BD14FEA03314FEA0530D0
:103CB000340341EA155140EA16506FF003020AE05E
:103CC0004FEAC3214FEAC520F40241EA555140EAC8
:103CD00056506FF0020202EB2E4201EB025585EACC
:103CE000CE710AD05FEA440C18BF24F0004450F1B2
:103CF000000041F1000120EAD47040F2FE7C6245F0
:103D000000D270BDA84214BF4FF080444FF0404431
:103D1000002E08BF0024BEF1806FA8BFA1F1C041F2
:103D2000BDE8704080F282804FF0000001F1C04198
:103D300001F0004170479EEA0C0F0CEA131518BF02
:103D400095EA0C0F06D04FF0000081EA030E0EF04A
:103D5000004170BD00F01CF88900013E00F007B87A
:103D600000F009B84FEA430C5FEA5C5C08D081EAD6
:103D7000030100F05BB84FEA410C5FEA5C5CF6D1EE
:103D80004FF00000014970470000FF070000F87F76
:103D90000EF1020E2EF0030E5EF8046B364205D4CF
:103DA000012A43EB030515F5001F12D8012841EB4A
:103DB000010C1CF5001F0CD80ED14FEAD17C15F573
:103DC000001F0CEB4C0C0CF1020C08BF4CEBD37C2D
:103DD00004E04FF0080C01E04FEAD37C0CEB4C05FB
:103DE00026FA05F606F00706B6F1040C06D20EEB2D
:103DF000860CBDE870404CF0010C6047DFE80CF029
:103E0000090B02024FF000414FF00000A1F5002124
:103E100070BD19461046012851EB010418BFD4F5B6
:103E2000001484BF002001F0004170BD0808A0F517
:103E300000114FEA3101704791EA030F10B581F08C
:103E400000413FF503AD83F0004300F009B80000E6
:103E500010B591EA030F48BF83F000433FF5F6AC7D
:103E6000841A71EB030C07D212198CF0004C43EB4F
:103E70000C03001B61EB0C01DFF8A4E14FEA1154C5
:103E8000A4EB135C1EEA430F18BF9EEA445F00F0E8
:103E9000B08023EA6E03524221EA0451C3EB6E0361
:103EA00038BF5B1EDCF1200E25D322FA0CFE10EB8E
:103EB0000E0043FA0CFE41EB0E01CCF1200E03FA8A
:103EC0000EFE10EB0E0051F10001CCF1200E29D4B2
:103ED00012FA0EF201EB0451BDE8104058BF7047D2
:103EE000401C1CBFB2F1004F704700280CBF491C9A
:103EF00020F00100704712EB020E43EB030218BFE3
:103F00004FF0010E4EEA4202ACF1200CDCF11E0E25
:103F100054D943FA0CFE10EB0E0051F1FF31CCF1F5
:103F20001E0ED5D50EF1010E12FA0EFE404141EBE8
:103F3000010101EB445C5FEA5C5C10D910EBDE70C0
:103F400001EB045138BFBEF1004FBDE8104018BF6F
:103F5000704700280CBF491C20F00100704730D288
:103F60004FEAD42C11F5001124F400641BD0B1FAEF
:103F700081F20B3AA41AA41ED2F12003914030FA28
:103F800003F31943904001EBCC71002C01EB045179
:103F9000BDE81040A8BF704701F1C0414FF00000DC
:103FA00001F000417047B0FA80F310FA03F100D13C
:103FB00010BDE41A173C4805C90AE4E701EB0451B7
:103FC00010BD491001EB0451BDE810404FEA30002C
:103FD00002E04FF0000170474A0008BF0042F8D0ED
:103FE000B2F5001F28BF704701F000414FF00000FC
:103FF00070479EEA445F07D011EA5E0FBDE81040AB
:1040000004BF002100207047BDE8104070B5FFF7E5
:10401000BFFE00BF40DFF63E83F000411046704710
:104020000000E0FF43004FEAD30C4FEA3C0C434052
:104030001FBF40070CF1605113F0FE4F70471CF09A
:10404000006F03D100200CF0004170470CF00043DA
:1040500043EA507010B540EACC0000F042F900BFCE
:10406000000000924FEA0001FFF7E0BE4FF0004170
:104070004FF00000A1F500217047000090EA010F09
:1040800048BF81F0004100F18881421A3CBF801A8C
:1040900089184FEAD0524FF07F4C1CEA410FA2EB37
:1040A000D15318BF9CEA026F00F03B804FF0004CE8
:1040B0004CEA00204CEA012121FA03FC10EB0C0C25
:1040C0001ED202F1FF325FEA1C2040EBC25038BF23
:1040D00070471CF07F0F4FEA400C18BFBCF17F4FB8
:1040E00038BF7047C3F12003994008BF20F001009A
:1040F000BCF17F4F38BF7047A0F1C04000F037B926
:104100004FEA3C00000A40EBC25028BF1CF0FF0FF2
:104110004FEA400CE6D018BFBCF17F4F38BF704764
:10412000EAE79CEA026F05D010EA5C0F08BF00F0D6
:104130000040704710B500F0D4F800BF64FBBE3EED
:1041400041000B0ED3F19E0208D950F400034FEA50
:10415000032323FA02F048BF4042704710B500F035
:10416000C0F800BF49922480002070476FF00042E1
:1041700082EA200070470000C10DD1F19E0206DBEB
:104180004FEA002343F0004323FA02F07047004255
:1041900007D54FEA4001B1F1FE4F02D24FF00000C7
:1041A000704710B500F09DF84992248000207047B8
:1041B0006FEA200070470000B0FA80F310FA03F2B3
:1041C000C3F19D030AD0D90501EB1220530638BF75
:1041D000704700F1010008BF20F0010070470000A7
:1041E0004FF47F0C1CEAD0121EBF1CEAD11392EAD6
:1041F0000C0F93EA0C0F00F0478090EA010F48BFC4
:1042000042F480724FF0004C4CEA00204CEA01214D
:1042100002EB0302A0FB0113A2F50002002918BF64
:1042200043F001035B0028BF4FEA330342EB224215
:104230005FEA132C4CEBC2502EBFBCEB436FB2F5C0
:104240007C0F70474FEA036CBCF1004F08BF20F0B1
:104250000100B2F57C0F38BF70470BD582F0FF022A
:1042600012F5803FC8BF704700F1C040D8BF00F0D2
:104270000040704700F5000C5FEA4C0C48BF7047E7
:10428000B0F1C04000F073B890EA010F0CEAD1130E
:1042900048BF42F48072624538BF634504D280EA69
:1042A000010000F00040704710B500F01AF800BFA0
:1042B0008900013E00F007B800F009B85FEA410C40
:1042C0005FEA1C6C08D080EA010000F050B85FEA99
:1042D000400C5FEA1C6CF6D14FF00040A0F5800066
:1042E00070470EF1020E2EF0030E5EF8044B2442CE
:1042F00004D44FEA4102B2F17F4F11D84FEA400394
:10430000B3F17F4F0CD80ED14FEAD07CB2F17F4F82
:104310000CEB4C0C0CF1020C08BF4CEBD17C04E014
:104320004FF0080C01E04FEAD17C0CEB4C0324FA6F
:1043300003F404F00704B4F1040C06D20EEB840C71
:10434000BDE810404CF0010C6047DFE80CF00708B6
:1043500002024FF00040A0F5800010BD0846420068
:1043600018BFD2F1807288BF00F0004010BDFF215D
:1043700041EAD050C005704780F0004090EA010F3C
:104380007FF583AE81F0004100F007B890EA010F9D
:1043900048BF81F000413FF578AE421A04D882F060
:1043A0000042A0EB020011444FEAD0524FF07F4C84
:1043B0001CEA410FA2EBD15318BF9CEA026F4AD00E
:1043C0004FF0004C4CEA00204CEA012121FA03FC9A
:1043D000B0EB0C0C0FD412F0FE0F36D05FEA4C009D
:1043E0001DD5001240EBC25038BF70471CF03F0F84
:1043F00018BF70470BE0A2F101025FEA1C2040EBFE
:10440000C25038BF70471CF07F0F18BF7047C3F110
:104410002003994014BF401E20F00100704780081F
:104420004FEA122308BF7047B0FA80FCA2EB0C02DF
:10443000CCF1280C60FA0CF093EA122F04BF00EBC9
:10444000C25070474FEAC3707047130A5FEADC102E
:1044500008BF7047F6E79CEA026F04D010EA5C0FD1
:1044600008BF0020704710B5FFF73BFF40DFF63E66
:1044700081F000407047FCF78AB90000000000009E
:104480000000000000000000000000000008080814
:104490000808080800001818000000486C241200E2
:1044A00000000000000000000000000000242424A0
:1044B0007F1212127F12121200000000081C2A2A1A
:1044C0000A0C1828282A2A1C080800000022251592
:1044D00015152A585454542200000000000C1212E2
:1044E000120A76252911916E0000000606040300C9
:1044F0000000000000000000000000402010100834
:1045000008080808081010204000000204080810DD
:104510001010101010080804020000000000080825
:104520006B1C1C6B0808000000000000000008085D
:1045300008087F08080808000000000000000000CC
:104540000000000000000606040300000000000058
:104550000000FE000000000000000000000000005D
:10456000000000000000060600000000804040201F
:104570002010100808040402020000000018244261
:1045800042424242424224180000000000080E0845
:10459000080808080808083E00000000003C4242E5
:1045A000422020100804427E00000000003C4242ED
:1045B000201820404042221C00000000002030282B
:1045C000242422227E20207800000000007E0202A7
:1045D000021A26404042221C00000000003824023B
:1045E000021A26424242241800000000007E2222C5
:1045F000101008080808080800000000003C4242AB
:10460000422418244242423C000000000018244288
:10461000424264584040241C00000000000000009A
:10462000181800000000181800000000000000002A
:1046300000080000000000080804000000402010EE
:1046400008040204081020400000000000000000E0
:104650007F0000007F00000000000000000204084E
:10466000102040201008040200000000003C4242DC
:10467000464020101000181800000000001C225AAC
:10468000555555552D42221C000000000008081801
:104690001414243C224242E700000000001F2222A2
:1046A000221E22424242221F00000000007C4242A1
:1046B000010101010142221C00000000001F2242F2
:1046C000424242424242221F00000000003F42128A
:1046D000121E12120242423F00000000003F42122E
:1046E000121E12120202020700000000003C2222E9
:1046F000010101712122221C0000000000E742425A
:1047000042427E42424242E700000000003E08086A
:10471000080808080808083E00000000007C101087
:104720001010101010101010110F0000007722123E
:104730000A0E0A121222227700000000000702026D
:10474000020202020202427F0000000000773636B9
:1047500036362A2A2A2A2A6B0000000000E3464641
:104760004A4A52525262624700000000001C224135
:10477000414141414141221C00000000003F4242B2
:1047800042423E020202020700000000001C2241D9
:10479000414141414D53321C60000000003F424204
:1047A000423E1212222242C700000000007C424218
:1047B000020418204042423E00000000007F4908E9
:1047C000080808080808081C0000000000E742422A
:1047D000424242424242423C0000000000E7424264
:1047E000222424141418080800000000006B494912
:1047F00049495555362222220000000000E7422494
:1048000024181818242442E7000000000077222210
:10481000141408080808081C00000000007E21206D
:10482000101008040442423F0000007808080808FD
:1048300008080808080808087800000002020404B4
:1048400008080810102020204040001E10101010F2
:1048500010101010101010101E000038440000003E
:104860000000000000000000000000000000000048
:10487000000000000000000000FF0006080000002B
:104880000000000000000000000000000000000028
:10489000003C4278444242FC000000000003020257
:1048A000021A26424242261A0000000000000000C0
:1048B000003844020202443800000000006040401A
:1048C00040784442424264D80000000000000000EA
:1048D000003C427E0202423C0000000000F08808DA
:1048E000087E08080808083E0000000000000000DC
:1048F000007C22221C023C42423C000000030202D7
:10490000023A4642424242E700000000000C0C001E
:10491000000E08080808083E0000000000303000C3
:104920000038202020202020221E00000003020248
:104930000272120A1612227700000000000E080808
:10494000080808080808083E0000000000000000F1
:10495000007F9292929292B7000000000000000047
:10496000003B4642424242E70000000000000000D7
:10497000003C42424242423C000000000000000075
:10498000001B26424242221E0207000000000000D7
:10499000007844424242447840E0000000000000B9
:1049A00000774C040404041F000000000000000015
:1049B000007C42023C40423E000000000000000833
:1049C000083E080808080830000000000000000049
:1049D00000634242424262DC00000000000000002E
:1049E00000E7422424140808000000000000000032
:1049F00000EB49495555222200000000000000004C
:104A0000007624181818246E000000000000000032
:104A100000E74224241418080807000000000000E2
:104A2000007E22100808447E000000C020202020C4
:104A30002010202020202020C00010101010101066
:104A400010101010101010101010000608080808A0
:104A5000081008080808080806000C32C200000008
:104A60000000000000000000000040008000FE7F09
:104A70000240112120012001080110011001FF7FD7
:104A800080024004200818100620CAB500041F0444
:104A9000100A120A12119220525F3E002022202496
:104AA000B824271522112008D47F0800D1E900017D
:104AB00004020802E83F000840088F0408050802C5
:104AC00008058808481028101400E27F0000D5E28D
:104AD000F80F08080808F80F08080808F80F000081
:104AE000FF7F80008800881F88009400A200C17F9B
:104AF000CAC7000000000000000000000000000025
:104B0000FF7F000000000000000000000000000027
:104B10000000D2BB20002000F00F18042602C001C4
:104B2000B80E87708000FE3F8000900488088410D3
:104B3000A2204000CCF50020E4232822282AA12A24
:104B4000A22AA22AA82AA82AA42AA72A8420442181
:104B5000442224281010B2E200140424082408047B
:104B6000E07F00040F04E807880488088808A80884
:104B70009853E85040600040CAD40000E23F04026D
:104B80000402C01F00110711E47F04000400C41FC9
:104B9000441054104C10C41F4010D3EF10001000EC
:104BA0000800F81F04100210F9110811081108116B
:104BB0000811F81108110010000A0004BEE40000FA
:104BC00008000800080008000800080008000800A5
:104BD000080000000000080008000000000021009C
:104BE00080008000FC1F84108410FC1F8000800067
:104BF000FE3F82208220FE3F8220800080008000D5
:104C0000B4AE00000000FC1F0410041004100410D7
:104C1000041004100410041004100410FC1F0410ED
:104C20000000BFDA001CC4030802E83F800A4012FB
:104C30002F62C80F8808883C882048282810140054
:104C4000E27F0000CDB8100210021002C81F080257
:104C50000C01EC7F0A018900C81F081088080805AC
:104C6000080208040804B4AB88088808E83F8808EC
:104C70003F00C81F4C10DC1F6A10CA1F0902E83F22
:104C80000805880848102860C4A3001200220022EA
:104C90000002FF7F000200027C02100210021004DA
:104CA0001044F0481E5004600040CABD024000009D
:104CB000000000A00000000005400000000000C847
:104CC000000000000C4000000000409C00000000BC
:104CD000194000000020BCBE00000000344000006D
:104CE000BFC91B8E00000004B5400000504BCFD060
:104CF0006607E2CF010000006C4100003E8251AA2D
:104D0000DFEEA73401000000D9420000DCB5A0E2CC
:104D10003A301F97FFFFFFFFB4450000FD25A0C8F4
:104D2000E9A3C14FFFFFFFFFFF3F0000000000802D
:104D300000000000FF3F00000000008000000000B5
:104D400041542B514D54434F4E4E3D302C22313562
:104D5000323238313232626332367A7A6731323304
:104D6000222C226439396233323262626433303445
:104D700036376539333536306637336332633862F8
:104D8000303065222C226259386D5579314A54727F
:104D90004D3853702D6C3145674C44343746465678
:104DA0006E4275466449545254414365326377728A
:104DB0006B220D0A00000000F44D000800000020E6
:104DC000840000006C010008784E00088400002078
:104DD00004140000880100081C00000043000000CB
:104DE000F8FFFFFF0C0000000E0000000F000000A5
:104DF0002E00000000000000000000000100000084
:104E0000000000000000000000A24A0400000000B2
:104E1000000000000102030406070809000000006A
:104E2000010203040102030406070809020406083C
:104E30000000000000000000000000000000000072
:104E40000000000000000000000000000000000062
:104E500000000000B63C00009D2B00008C0000000C
:104E6000920000000000000000000000FAFF0000B7
:084E7000C9006400000000000D
:0400000508000131BD
:00000001FF
