:020000040800F2
:10000000981F00200102000885350008A12A000879
:1000100081350008FF2600086B440008000000003E
:100020000000000000000000000000000939000886
:1000300029270008000000000D3600081D3D0008BB
:100040001B0200081B0200081B0200081B0200081C
:100050001B0200081B0200081B0200081B0200080C
:100060001B0200081B0200081B0200081B020008FC
:100070001B0200081B0200081B0200081B020008EC
:100080001B0200081B0200081B0200081B020008DC
:100090001B0200081B0200081B0200081B020008CC
:1000A0001B0200081B0200081B0200081B020008BC
:1000B0001B020008813D00081B0200081B0200080B
:1000C0001B0200081B0200081B0200081B0200089C
:1000D0001B020008BD400008FD4100081B0200088B
:1000E0001B0200081B0200081B0200081B0200087C
:1000F0001B0200081B0200081B0200081B0200086C
:100100001B0200081B0200081B0200081B0200085B
:100110001B0200081B0200081B0200081B0200084B
:100120001B0200081B0200081B0200081B0200083B
:1001300000F002F800F054F80AA090E8000C8244A5
:100140008344AAF10107DA4501D100F049F8AFF282
:10015000090EBAE80F0013F0010F18BFFB1A43F0A5
:1001600001031847646C0000846C0000103A24BF3F
:1001700078C878C1FAD8520724BF30C830C144BF0C
:1001800004680C607047000000230024002500264E
:10019000103A28BF78C1FBD8520728BF30C148BFEA
:1001A0000B607047662906F0E780642900F01E8125
:1001B000002070471FB59DE8030000F095FB01F09B
:1001C00041F904000020002105F066F9401C606040
:1001D0000020002105F076F9E0601FBD10B510BDCC
:1001E00001F059FA1146FFF7E5FF04F0E3FC01F0D6
:1001F000ADFC03B4FFF7F2FF03BC04F0C1FA00004A
:100200000948804709480047FEE7FEE7FEE7FEE7AA
:10021000FEE7FEE7FEE7FEE7FEE7FEE704480549E6
:10022000054A064B70470000213D000831010008D7
:10023000980F0020981F0020981B0020981B00207A
:10024000704770B5064600F033FB056806F10B00F9
:1002500020F00704B4429CBF002070BD2B466A68A2
:10026000BAB11068A04210D304F1080188423CBF23
:100270005068586007D35168101941601168091B14
:10028000016058601460101D70BD13465268002A4A
:10029000E7D12146284600F013FB0028DED170BDCF
:1002A00070B50446051F00F003FB0068002C14BF66
:1002B000446870BD002C18BFAC423CBF2046646847
:1002C000F8D301680A18AA4218BF456003D12A680A
:1002D00005461144016028684119A1421CBF6C60A9
:1002E00070BD6168696021680844286070BD70B5A0
:1002F0000D460646041F00F0DBFAD0F800C0C5B179
:10030000E6B105F10B0020F00703AB423CBF002033
:1003100070BD2068984238BFDCF8042013D3C11A9E
:1003200008292FD3E01840F8041B2360FFF7B8FF1B
:1003300028E03046FFF7B4FF002070BD2846BDE836
:100340007040FFF77EBF002A18BFA2423CBF944610
:100350005268F8D30119914216D1116808449842A5
:1003600012D3C11A08293CBF2060506808D35168D5
:10037000E0184160216812681144C91A01602360C5
:10038000CCF80400201D70BD181FFFF75AFF0500B0
:1003900007D021680A1F211D00F0E5F9201DFFF795
:1003A0007FFF284670BD10B5044600F079FA00685A
:1003B000005DC00602D504F1200010BD204610BD2E
:1003C0000FB41CB5084B06AA7B44694600900598FB
:1003D00000F02DFD04460020694600F03BFD20465C
:1003E0001CBC5DF814FB0000890A00002DE9F041F7
:1003F0000646002410687529314616A510D0AFF3C3
:100400000080002802DA404213A507E031688A071D
:1004100001D512A502E0490704D511A5012401E088
:10042000AFF3008000210A2206F1240709E0B0FBA7
:10043000F2FCB0FBF2F302FB1C003030785418469B
:10044000491C0028F3D123462A463046BDE8F04136
:1004500000F080BA000000002D0000002B0000001A
:10046000200000002DE9F05F894604464FF0000AA5
:10047000DFF824B1FB44C0F820A02046E16888479B
:1004800000287DD0252806D0D4E901219047206A94
:10049000401C2062F1E700255F462046E16888475E
:1004A0002028064607DB312E05D2B81910F8200C9B
:1004B00008B10543F1E7A80701D525F00405C4F804
:1004C0001CA00027C4F818A02A2E09D0304604F03A
:1004D00050F938B304EB8708303EC8F8186019E0CB
:1004E00059F8041B204604EB87029161E1688847B4
:1004F000012F064618D1E069002820DA25F02005F2
:100500001DE0D8F8180000EB800006EB4000303802
:10051000C8F818002046E1688847064604F029F923
:100520000028EED1012F0AD02E2E08D12046E168F6
:1005300088477F1C0646022F45F02005C4DBA069D2
:10054000002803DA404245F00105A061E80701D028
:1005500025F01005A6B1A6F14100192802D82036D1
:1005600045F400654A463146204625604D46FFF772
:1005700019FE60B1012807D0ED1D25F0070000E04D
:1005800007E000F1080978E705F1040975E730464E
:100590007AE7206ABDE8F09F3268000030B5054672
:1005A0000B462A4613F8014B12F8010B08B1A04282
:1005B000F8D01CB1002802D06D1CF1E7284630BDF0
:1005C00040EA0103024630B59B0710D14FF00134D9
:1005D00000E008C208C91D1B9D4315EAC41FF8D0DE
:1005E00013F0FF0102F8011B0DD01B0AF8E711F808
:1005F000013B002B02F8013B05D011F8013B002B19
:1006000002F8013BF3D130BD10B5431C02E010F8F5
:10061000011B71B18107FAD14FF0013202C88C1A67
:100620008C4314EAC211F9D0C01A0A0603D0C01EC6
:1006300010BDC01A10BD0A0401D0801E10BD0902F1
:10064000FCD0401E10BD40EA010370B59B072ED1BF
:100650004FF00136042A2AD308C810C99D1B9D43B8
:10066000121F15EAC61517D0D8B2E1B2401A50EAE7
:10067000056110D198B2A1B2401A50EA05410AD1E1
:1006800023F07F4024F07F41401A50EA052102D137
:10069000180EA0EB146070BDA342DBD018BA21BACB
:1006A000884201D9012070BD4FF0FF3070BD0AB9FA
:1006B000002070BD10F8013B11F8014B63B1A3425B
:1006C0000AD1521E08D010F8013B11F8014B1BB1A2
:1006D000A34201D1521EEDD1181B70BD032A40F276
:1006E000308010F0030C00F0158011F8013BBCF1D4
:1006F000020F624498BF11F801CB00F8013B38BFEC
:1007000011F8013BA2F1040298BF00F801CB38BFF9
:1007100000F8013B11F0030300F02580083AC0F017
:10072000088051F8043B083A51F804CBA0E80810BF
:10073000F5E7121D5CBF51F8043B40F8043BAFF3F2
:100740000080D20724BF11F8013B11F801CB48BF4C
:1007500011F8012B24BF00F8013B00F801CB48BF82
:1007600000F8012B704710B5203AC0F00B80B1E8BB
:100770001850203AA0E81850B1E81850A0E81850D6
:10078000BFF4F5AF5FEA027C24BFB1E81850A0E8DF
:10079000185044BF18C918C0BDE810405FEA827CF9
:1007A00024BF51F8043B40F8043B08BF7047D20710
:1007B00028BF31F8023B48BF11F8012B28BF20F8B1
:1007C000023B48BF00F8012B70474FF0000200B514
:1007D000134694469646203922BFA0E80C50A0E864
:1007E0000C50B1F12001BFF4F7AF090728BFA0E812
:1007F0000C5048BF0CC05DF804EB890028BF40F8DE
:10080000042B08BF704748BF20F8022B11F0804F1F
:1008100018BF00F8012B70474FF0013C50F8042B33
:1008200051F8043B9A4221D1A2EB0C03934313EA03
:10083000CC1317D150F8042B51F8043B9A4215D130
:10084000A2EB0C03934313EACC130BD150F8042B07
:1008500051F8043B9A4209D1A2EB0C03934313EAEB
:10086000CC13DBD04FF00000704700BFD01A01BAA4
:10087000B1FA81F101F0180122FA01F0CB40C1F187
:100880002001DBB2C0B2C01A2CFA01F3D11A914395
:1008900011EAC311E6D1704770477047704770473F
:1008A00010B500F0CFFD001D10BD00BFED4B0000E6
:1008B000004870473C0F00207047704770477047F2
:1008C00038B504460A4600206946AFF30080002888
:1008D00008BF38BD02460099204600F0BBFD01204C
:1008E00038BD012000F0D0BEF8B5AFF3008005465A
:1008F00000200C46102000BF0646A819A0420DD9C2
:10090000324669460020AFF30080070008BF00F0C0
:10091000BBFE0098A04218BF0546C419FFF7C8FFE8
:1009200005600746F01D20F007004619284600F034
:100930000AF8B44208BFF8BDA21B31463868BDE8CA
:10094000F84000F087BD00210160C0E90110704748
:10095000102070472DE9F0470D469946924604460F
:1009600000F124080168880604D5E06921F010012F
:10097000216000E00120A84201DD471B00E00027C4
:10098000A1697A1902EB0900081AA0612078C00653
:1009900002D42046AFF30080002608E0D4E901210C
:1009A0001AF806009047206A401C761C20624E45CB
:1009B000F4DB2078C0060AD52046AFF3008006E0BD
:1009C000D4E9012130209047206A401C2062381E63
:1009D000A7F10107F4DC07E0D4E9012118F80500CC
:1009E0009047206A401C2062281EA5F10105F3DC17
:1009F0002046AFF300802078000602D50220BDE833
:100A0000F0870120FBE770472DE9FF4F0C461E469B
:100A10004FF0FF378BB0D2E90001DDF860800A901B
:100A20008A46C1F30A5505B93D46002108464FF0F4
:100A30000000BAF1000F00F4400005DA00EB80007E
:100A40004FF4400101EA50004FEA9059B9F1010F0B
:100A500000DDB9460A9850EA4A000ED044F610501C
:100A6000A5F2FF3545432F14B8F1000F1ED0754293
:100A7000291E1EDDC9F100021CE0B8F1010F4FF084
:100A8000000001D0302103E0F24305E02154401C76
:100A9000B042FBDB30460022002121540B99C1F803
:100AA0000880C1E900200FB0BDE8F08FBD1B6D1CB0
:100AB000DEE74A4600DA694206A800F073FD06AB9D
:100AC00093E8070003AB83E8070050460A9901F05A
:100AD000ADF88DE80700A0F500501F38009003988E
:100AE000002D0ADD42F21F014A460844002303A9F3
:100AF0000390684601F058FB09E0A0F500504A4613
:100B00001F38002303A90390684601F077FB8DE8A6
:100B100007000004000C03D04FF0FF30410800E054
:100B20001046B8F1000F03D00022009215461EE0D7
:100B3000751E05D400F0A8FC303262556D1EF9D543
:100B4000B3460122084302D000227F1C04E0207833
:100B5000302801D100227F1E002A099784D01DE091
:100B6000112D07DA00F090FC303262556D1C50EA0E
:100B70000102F5D1084302D00098C8B10EE000216F
:100B8000681E05E0235C625C63542254401E491CCD
:100B90008142F7DBAB46A81B401E0990002004F8F9
:100BA0000B000B98099AC0F80880C0E9002B7AE77F
:100BB00011264FF0000857E72DE9F04F884604460C
:100BC000D21D22F0070191B0D1E90001CDE90A015F
:100BD00003F03AFD02460B98C00F01D02D2007E02C
:100BE0002068810701D52B2002E0202101EAC00006
:100BF000032A099001D0072A05DB03464146204617
:100C000000F090FC0BE12078800601D5E06900E05F
:100C10000620B8F1650F814606D0B8F1660F18D0EE
:100C2000B8F1670F70D131E00020B9F1110F0090D9
:100C300001DB112301E009F101030AAA01A90CA8B3
:100C4000FFF7E2FEDDE90C70002609F1010583469D
:100C500047E001204B4600904FF000470AAA01A947
:100C60000CA8FFF7D1FEDDE90DB00C995D4600261A
:100C700010B909F101000D18B9EB050003D4C0F15A
:100C8000FF3609F10105A5EB09002BE0B9F1010FD1
:100C900001DA4FF001090020B9F1110F0090484628
:100CA00001DD112300E003460AAA01A90CA8FFF701
:100CB000ABFEDDE90C704D46002683462078000728
:100CC0000AD4AB4500DA5D4601A8012D04DD4119C7
:100CD00011F8011C302907D04F4502DA17F1040F33
:100CE00004DA012082460FE06D1EEEE7002F02DCE1
:100CF000ED1B3E4403E0781CA84200DD7D1CB81BC0
:100D000000F1010A4FF000472078000703D4AA45FC
:100D100001DB4FF0FF3A0021B7F1004F0DF143081E
:100D20008DF8431024D002202B23002F01DA7F42BC
:100D30002D230A21021EA0F1010000DC5FB197FB08
:100D4000F1FC97FBF1F201FB1C7C17460CF1300C17
:100D500008F801CDEEE7A8F101000370218809052C
:100D600001D5452100E06521A0F1010800F8011C32
:100D700009980FA9A1EB0807FF1D00B10120411937
:100D800001EBEA70A1693844081A401EA06120787E
:100D9000C00602D42046AFF30080099828B1D4E9F8
:100DA00001219047206A401C20622078C00622D58D
:100DB0002046AFF300801EE0002E04DBB34502DDC9
:100DC00001A8805D00E03020D4E901219047206A2D
:100DD000401C2062761CAAF101005FEA000A0AD1D9
:100DE00000F030FBC0680168405CD4E90121904705
:100DF000206A401C2062281EA5F10105DCDC07E00A
:100E0000D4E9012118F8010B9047206A401C2062A8
:100E1000381EA7F10107F3DC2046AFF30080032062
:100E200011B041E601694A1C02610878704700B5BB
:100E30008FB0CDE901310021059105497944CDE913
:100E4000031011466846FFF70DFB0FB000BD000010
:100E5000E5FFFFFF0A6802F8010B0A607047000017
:100E60002DE9FF4F06468BB00878FF2806D0491CB5
:100E70002D2805D000244FF0000908E000200CE0E8
:100E80000124F8E709EB8903491C00EB43090878C2
:100E9000FF28F7D114B1C9F1000081461078002570
:100EA0002C46AA4629462D2801D02B2804D1521CB5
:100EB0002D2813D0002082468B461078FF280FD0B3
:100EC0004FF0000C0A21521CA5FB017804FB0181A4
:100ED00005FB0C11C5194BEB0104EEE70120EAE715
:100EE000002108464FF00000BAF1000F02D000EBDD
:100EF00080004008C0F38157012F01DD4FF0FF371C
:100F00000E9955EA040009EB01080BD04FF00209D5
:100F100018F5FA7F16DA4FEACA70002F706008DD04
:100F2000012007E04FEACA70C6E900B00FB0BDE883
:100F3000F08F0020306000F089FAC0F8009018218E
:100F4000084616E0B8F5FA7F18DD002F02DAF748F8
:100F5000784401E0F6487844D0E90010C6E9001072
:100F600040EACA70706000F071FAC0F80090142175
:100F700008460FB0BDE8F04F05F0FBB90021084668
:100F80004FF00000B8F10001099002DAC7F1000249
:100F900000E03A4601DAC8F1000106A800F002FBC1
:100FA00006AB93E8070003AB83E8070044F23E007A
:100FB0005BEA04010090584604D144F21E012C461D
:100FC0005D460091210C0904014306D100992404D7
:100FD00044EA15442D041039009104F07F41014387
:100FE00006D10099240244EA15642D0208390091C3
:100FF00004F07041014306D10099240144EA1574BC
:101000002D01091F009104F04041014306D10099D0
:10101000A40044EA9574AD00891E009104F00041DB
:10102000084304D100986D196441401E00904FF0B0
:1010300001033A466846B8F1000FCDE9014503A91E
:1010400002DD01F0F0F801E001F0C3F8BAF1000FA1
:1010500004460D4601D084F00044002108464FF0BC
:101060000000099940F2FF77484010F00C0F07D1BB
:1010700024F00040284303D0C4F30A50B84212D1F0
:1010800000F0E4F9C0F80090C4F30A50B8420AD165
:10109000A8487844D0E90010C6E9001004F00041E7
:1010A0000843706042E7C6E900543FE72DE9FF4F6F
:1010B0001F464FF0000A4FF0FF38454691B0D7E980
:1010C0000146CDF83CA000F0BDF9C0680168405C65
:1010D0001090B96912986D1C8847396A8146884713
:1010E0000028F6D1B9F1FF3F0AD0002E24F4D064D5
:1010F00011DDB9F12B0F08D0B9F12D0F0BD102E0A2
:10110000404615B013E744F48064B96912986D1C29
:101110008847761E8146600504A901D52D2000E090
:101120002B20002E01F1010B0DF130088DF810007D
:101130003FDDB9F1690F08D0B9F1490F05D0B9F118
:101140006E0F02D0B9F14E0F1CD13B4601A800959D
:1011500080E85002DDE912126FF0020005F072F92A
:10116000C11CCED10EE0B96912986D1C884781462A
:101170001398761E44F4007405600F98401C002EEE
:101180000F9016DDB9F1300FEDD0B9F1780F02D024
:10119000B9F1580F0DD10F9801280AD13B46CDE97E
:1011A0000054DDE91212001F029605F049F9C11C36
:1011B000A7D1109989453ED144F0800406E01399E7
:1011C000681CAAF1010A44F400740860B9696D1C36
:1011D0001298761E884730288146F0D02BE010996F
:1011E000894505D1200603D4761E44F0800418E01A
:1011F000484603F0BEFA08B3761E0DF123018B4575
:1012000044F4007408D2A9F130000BF8010B200659
:1012100007D5AAF1010003E0200602D40AF101007B
:101220008246A00502D51399681C0860B969129816
:101230006D1C88478146002ED1DC53E0002E51DD25
:10124000B9F1650F02D0B9F1450F4BD1A00549D5D1
:10125000B9696D1C1298761E24F440748847002EDC
:1012600081460CDD2B2804D0B9F12D0F07D144F4B1
:101270008074B96912986D1C8847761E8146E00516
:1012800001D52D2100E02B2108F8011BCDF80080AD
:1012900021E0761E0DF13901884544F400740CD22A
:1012A000A9F1300010F0FF0088F8000002D1009989
:1012B000884509D908F1010806E0E00501D51E4876
:1012C00001E042F20F708246B96912986D1C88479E
:1012D000814613980560002E04DD484603F049FA64
:1012E0000028D6D1F96912988847FF2053468BF819
:1012F000000088F8000000200A900B9004AA0CA9B6
:101300000AA8FFF7ADFDA00502D46FF00100F8E6D2
:1013100014F0240F12D0E0071CD13868DDE90A125E
:10132000031D3B600068C0E9001213E09C5E0000F2
:101330008E5E0000525D0000F1D8FFFF0AA96846EA
:1013400003F0A6F9E00705D13868009A011D39605D
:10135000006802602846D4E6426842B1016811F88C
:10136000013B23B1521EC0E900121846704701210B
:10137000C160881E704742685AB1C368016843B9AA
:1013800083688B4205D0491E521CC0E90012002020
:1013900070474FF0FF3070470FB4002300B589B09D
:1013A0000CA900910B99CB60214B7B440693214BF8
:1013B0007B44079304236FF00042CDE901321E4ABB
:1013C0007A446B4608920246002005F037F809B0CF
:1013D0005DF814FB70B506464FF0FF3015460C461D
:1013E000324686B00091CDE90101694600200490A3
:1013F00004A8FFF7D1FF02460498211825B108B1CF
:10140000084600E020462860049800280DD0002AF5
:1014100002DD0098884208D03246081B69460094D5
:10142000CDE9010404A8FFF7B7FF06B070BD0000C6
:10143000ABFFFFFFC3FFFFFF4F01000000487047F5
:10144000340F002000487047540F002000487047B8
:10145000340F0020034640688C46002818BF88429D
:101460003CBF03464068F8D318681844884207D048
:101470000CF1030020F00700001D411A521A01462A
:10148000081D0A60FEF70CBF30B5B0F10A024FEA42
:10149000900E71F100034EEA817EB0EB0E0061EB1D
:1014A00091014FEA101E4EEA017E10EB0E0041EB57
:1014B00011114FEA102E4EEA016E10EB0E0041EBB7
:1014C00011214FEA104E4EEA014E10EB0E0041EB97
:1014D0001141401841F100014FEAD00040EA41704B
:1014E0004FEAD10110EB80054FEA810444EA907481
:1014F00044EB01046D1944EB0404521BA3414FF06B
:10150000000348BF0A3200D530BD401C41F1000144
:1015100030BD10B50446FFF7C3F90068005D00F068
:10152000010010BD2DE9F0411F4604460326016865
:10153000072A01F4006004DB08B116A505E016A532
:1015400003E008B115A500E015A521F0100020600A
:10155000A069C01EA0610FB1401EA0612046AFF37C
:1015600000804FB1D4E9012138469047206A401CE1
:101570002062C01C206206E0206AFAE7D4E901215B
:1015800015F8010B9047761EF8D22046AFF3008085
:10159000BDE8F0814E414E006E616E00494E46003E
:1015A000696E66002DE9F047814616468AB03548D7
:1015B00078440DC88DE80D0032487844801C03AC97
:1015C0000DC884E80D0041F69B300844372190FB9C
:1015D000F1F290FBF1F5A5F1800501FB12041B3C33
:1015E00002D56442012000E00020DFF898A0804688
:1015F0000027FA44AAF1BE0A0EE0E0070AD03246FC
:10160000684607EB470101230AEB810100F0F6FD74
:101610008DE8070064107F1C002CEED1194F7F4429
:10162000AE3F19E0E80715D007EB04100DF1180ADA
:1016300090E80E008AE80E00C068F04201D19819C7
:1016400008903246012306A903A800F0D7FD03AB9A
:1016500083E807006D10641C002DE3D14FF00103F7
:1016600032466946B8F1000F03A802D000F09CFD95
:1016700001E000F0C3FDC9E90001C9F808200AB083
:10168000BDE8F0878457000010B500F06DFABDE8A2
:10169000104000F064BA7546FFF7D0FEAE46050074
:1016A0006946534620F00700854618B020B5FEF77E
:1016B000B5FDBDE820404FF000064FF000074FF0A9
:1016C00000084FF0000B21F00701AC46ACE8C00960
:1016D000ACE8C009ACE8C009ACE8C0098D46704769
:1016E00010B5FFF7B3FE006810BD10B50446FFF754
:1016F000ADFE046010BD00002DE9FF4F1F464FF006
:101700003C0987B04FF00042DDE9141001F10108F7
:10171000DDF858A002EA405003900020059083466F
:10172000054604460490B969461E08988847AAF100
:10173000010A0290BAF1000F3BDD02982E2815D065
:10174000102100F04CFA00282EDB4FF0010B059918
:10175000014317D0B9F1000F0BDB4A46C11700F067
:101760002BFA05430C43A9F1040905E0012004907C
:101770000BE008B145F0010501200590049820B95F
:10178000361D02E0049800B1361FB969089808F1C7
:1017900001088847BBF1000FAAF1010A0290C9D0E5
:1017A0000999C1F80080C5E70298702808D0502830
:1017B00006D0F96908988847BBF1000F14D04FE0B4
:1017C000002002900120BBF1000F049009D0B969FC
:1017D000089808F101088847AAF10109B9F1000F3A
:1017E00007DCF969089888476FF001000BB0BDE885
:1017F000F08F2B2804D02D280CD14FF0FF3004900F
:10180000B969089808F101088847A9F10109B9F1F7
:10181000000FE6DD411CE4D00A2100F0E0F90028C9
:10182000DFDB029908F1010801EB810100EB4100C7
:101830000290B969089888470A2100F0D0F9099AFE
:10184000A9F10109B9F1000FC2F8008001DD0028FB
:10185000E7DAF969089888470499029800FB01665D
:1018600055EA040004D004F04041090002D006E02B
:10187000039898E0A40044EA9574AD00B61E04F005
:101880000041080002D16D196441761E159810F0D0
:10189000240F03D04FF00B095C4803E04FF02809F8
:1018A0006FF07D008246564507DAAAEB06018944AF
:1018B000B9F1410F01DD4FF0410901200021A9F1EB
:1018C000010200F079F9024628400B462140084306
:1018D00001D0012100E00021501E029143F1FF31AF
:1018E00028402140084301D0012000E00020029957
:1018F000834651EA0B014FD0002108464FF000000B
:10190000039900F4400039B100EB80004FF440012E
:1019100000EBD07001EA60008015012802DD4FF075
:10192000FF3000E013D0401C36D0029860B3BBF10A
:10193000000F0CD14A460120002100F03DF928405B
:101940002140084301D0012000E00020E0B1012047
:101950004A46002100F030F9034640190A46614129
:101960002D1A8C4111D3B9F1400F09DD159810F0F3
:10197000240F02D0AAF1340603E0AAF1170600E012
:10198000761C00254FF0004406E05B1E42F1FF325A
:1019900020EA030521EA0204CAF10100B04206DA96
:1019A0001B49039808430190002000900EE0039A21
:1019B000C4F3D321E80A0A43164940EA44500A43D3
:1019C0003146CDE90002684602F0C8FE159810F0D5
:1019D000240F0BD01598C00715D13868DDE9001227
:1019E000031D3B600068C0E900120CE002A86946D4
:1019F00002F04EFE1598C00705D13868029A011D05
:101A00003960006802604046F0E6000002FCFFFF1B
:101A10000000F07F0000F03F2DE9FF4F92461D4689
:101A200085B04FF00041DDE9124BDDE914727F1EF5
:101A300001EA4B50414940F0FF4940EA01080021CA
:101A400022F020004928049102D04E2828D04CE0F2
:101A50003BA0012607C88DE80700A9690698641C09
:101A600088477F1E014606D41DF8060018B121F0F4
:101A7000200181420BD0E96906988847032E34D0B3
:101A8000082E32D06FF0010009B0BDE8F08F761C4F
:101A9000032E01D0082EE0D1601CCAF80000DCE75C
:101AA000A9690698641C88477F1E2AD420F020006C
:101AB000412826D1A9690698641C88477F1E20D436
:101AC00020F020004E281CD1A9690698641C884784
:101AD0007F1E48F4002849F48009CAF8004001D468
:101AE000282806D0E969069888475FEACB7012D0AB
:101AF00022E0A9690698641C88477F1E01D400284B
:101B000003DAE96906988847BCE72928F1D1641C03
:101B1000CAF80040E9E71BF0240F07D028680499B1
:101B2000031D2B600068C0E9001805E02868021D4D
:101B30002A600068C0F800902046A5E70000F07F0A
:101B4000494E46494E4954590000000010B504461C
:101B5000AFF300802046BDE81040FEF74ABB0028E6
:101B600001D002F00DBE704710B5012805D000214C
:101B700003A000F042F8012010BD09A1F8E7000021
:101B800053494752544D454D3A204F7574206F6666
:101B90002068656170206D656D6F727900000000CE
:101BA0003A2048656170206D656D6F727920636FB2
:101BB0007272757074656400B2F120030AD5C2F1C7
:101BC000200301FA02F120FA03F300FA02F041EADD
:101BD0000301704700FA03F14FF0000070473A2804
:101BE00000D2303820F02002412A01D3A2F1370080
:101BF000884201D34FF0FF30704770B505460C4660
:101C00000A2000E06D1C02F0BEFD35B128780028E6
:101C1000F8D102E0641C02F0B6FD14B1207800286F
:101C2000F8D1BDE870400A2002F0ADBD5FEA400C7B
:101C300008BF91F0000F4FEA8C234FEAC12243EA1C
:101C400051514FEA1C5018BF00F5F0404FEA3000E8
:101C500018BF41F000415FEA6C5C00F02980BCF1E4
:101C6000FF3F08BF40F080407047130C06BF1204CE
:101C70004FF0100C4FF0000C130E04BF12020CF1C9
:101C8000080C130F04BF12010CF1040C930F04BFD6
:101C900092000CF1020CD30F04BF52000CF1010CA6
:101CA00011464FF00002A0F11F00A0EB0C0070479E
:101CB00011F0004F08BF704731F000413FF4D5AF3D
:101CC0000B0C06BF09044FF0100C4FF0000C0B0E6C
:101CD00004BF09020CF1080C0B0F04BF09010CF141
:101CE000040C8B0F04BF89000CF1020CCB0F04BF56
:101CF00049000CF1010CCCF12003A0EB0C0022FAFE
:101D000003F302FA0CF241EA030100F1010070470B
:101D100020F07F4C80EA030023F07F47ACEB070301
:101D200003F57C5300F0004003F1FF032DE98049E7
:101D30004FEA154B09B44FEA144325EA0B4E24EA47
:101D400003480FF2042606EB132749083E785FEAA2
:101D5000320203FB0667C7F5000707FB06F64FEAEA
:101D600054374FEAD64606F1020607FB066CCCF163
:101D7000005C4FEA1C472CEA074C07FB06F40CFBFF
:101D800006F504EB15464FEA961634BF00204FF0D7
:101D900000404FEAD13706FB07FC4FEA1C4C0CFB16
:101DA0000BF7D21B03FB0CF761EB07010CFB0EF7E3
:101DB000B0EB074072EB17420CFB08F734BFA2EB05
:101DC0000742B2EB074261EB17414FEA0C444FEA7E
:101DD000910706FB07FC4FEA1C4C0CFB0BF7B0EB22
:101DE000C74072EB573203FB0CF734BFA2EBC7427C
:101DF000B2EBC74261EB57310CFB0EF7B0EBC700FB
:101E000072EB57720CFB08F734BFA2EBC702B2EBC0
:101E1000C70261EB5771039F4FEA816141EA92115A
:101E200004EBCC044FEAD1374FEA826206FB07FC91
:101E300042EA90124FEA80604FEA1C4C0CFB0BF711
:101E4000D21B03FB0CF761EB07010CFB0EF7B0EBA9
:101E5000074072EB17420CFB08F734BFA2EB0742B6
:101E6000B2EB074261EB17414FEA8C554FEA9107FD
:101E700004EB9C2406FB07FC4FEA1C4C0CFB0BF705
:101E8000B0EBC74072EB573203FB0CF734BFA2EB49
:101E9000C742B2EBC74261EB57310CFB0EF7B0EB18
:101EA000C70072EB57720CFB08F734BFA2EBC702F6
:101EB000B2EBC70261EB577115EB4C254FEA81611C
:101EC00041EA92114FEA82624FEAD13742EA901218
:101ED00006FB07FC44F100044FEA80604FEA1C4C0B
:101EE0000CFB0BF7D21B03FB0CF761EB07010CFBA0
:101EF0000EF7B0EB074072EB17420CFB08F734BF4C
:101F0000A2EB0742B2EB074261EB174115EB1C1540
:101F10004FEA813141EA92414FEA823242EA9042ED
:101F20004FEA80304FEA0C7644F1000448EA03435C
:101F30004EEA0B484FF0000EB2EB080C71EB0307B2
:101F400024BF624639464EEB0E0E4FF0000B0018D0
:101F5000524149414BEB0B0BB2EB080C71EB030701
:101F60007BF1000B24BF624639464EEB0E0E4FF05C
:101F7000000B0018524149414BEB0B0BB2EB080C24
:101F800071EB03077BF1000B24BF624639464EEB31
:101F90000E0E51EA020718BF46F0010616EB0E7648
:101FA00055F1000254F1000103D5BDE88901BDE8F7
:101FB0000088BDE88901BDE80048B619524141EBEF
:101FC0000101A3F10103704780807F7E7D7C7B7AD5
:101FD0007978777676757473727171706F6E6E6DD5
:101FE0006C6C6B6A6A69686867666665646463637B
:101FF00062616160605F5F5E5E5D5D5C5C5B5B5A01
:102000005A5959585857575656555555545453536D
:1020100052525251515050504F4F4F4E4E4D4D4DC8
:102020004C4C4C4B4B4B4A4A4A4949494848484713
:102030004747474646464545454444444443434351
:10204000434242424241414146EA0646A3F57053AB
:102050004FEA164646EA42564FEAD22242EA415237
:1020600010B54FEAD121A3F1010300F02FF820F0C1
:10207000004000F1020C00F0004701EB0050114657
:10208000BCF5006F40EA070000D210BDBAF1000FA6
:102090000AD01CB503B44FF004004FF004014FF018
:1020A00000000FBCBDE810404FF00001BBF1010F74
:1020B000B9BF04484FF0FF310348002140EA070050
:1020C00010BD00BFFFFFEF7F0000F07F002B9C469C
:1020D00030D477002BD01CB54FEA370703B44FF04C
:1020E00010004FF01001BAF1000F06D0BCF1000F44
:1020F000DCBF40F0080040F008014FF000000FBCCA
:10210000BDE810400BF1010BBBF1010F08BF5FEA06
:10211000170722BF12F1010211F101014FF0004136
:1021200043F1000300F0004043EA00007047F9D398
:102130005708D0E746EA064613F1400F4FEA164625
:102140001FDD13F1200FDFBF16430A4600212033A5
:102150005B42BED0C3F1200746EA064602FA07F703
:102160004FEA164646EA0706C3F1200722FA03F2B1
:1021700001FA07F721FA03F14FF0000342EA0702E0
:10218000A7E746EA020646EA06464FEA164646EA48
:102190000106BCBF46EA0646360C4FF000034FF07E
:1021A00000024FF0000194E72DE9804C9A469346D7
:1021B00070B491E8380007C831EA400C48BF34EAEF
:1021C000430C03D5FFF7A4FDFFF780FFF0BCBDE88B
:1021D000008C2DE9804C9A46934670B491E8380003
:1021E00007C831EA400C48BF34EA430C03D5FFF777
:1021F0008FFDFFF729FFF0BCBDE8008C2DE9804C76
:102200009A46934670B491E8380007C810F0804FA2
:1022100008BF13F0804F03D100F01AF8FFF756FF04
:10222000F0BCBDE8008C2DE9804C9A46934670B412
:1022300091E8380007C810F0804F08BF13F0804FB6
:1022400003D100F005F8FFF7FFFEF0BCBDE8008CFD
:1022500020F07F4780EA030023F07F4C07EB0C035C
:10226000A3F57C5300F00040A3F1FE0392F0000FB1
:1022700000F0B38095F0000F00F077802DE9014960
:102280004FEA11404FEA144621EA004800FB06FCE1
:1022900024EA064708FB06F607FB08F800FB07F7E9
:1022A00018EB06484CEB164C4FEA124B18EB07485C
:1022B0004FEA15464CEB174022EA0B4E0BFB06FC8F
:1022C00025EA06470EFB06F607FB0EFE0BFB07F79B
:1022D0001EEB064E4CEB164C4FF000061EEB074E65
:1022E0004CEB174B18EB0B0840F1000018EB0E0BF2
:1022F00058EB000840F100008F1A4FF000013CBF7E
:10230000C943661B14BFB5EB040C00213CBFC94395
:10231000F61B4FEA17444EEA8E0E27EA04454FEAB1
:102320001C4704FB07622CEA074C05FB07F70CFB74
:1023300005F604FB0CFC16EB074642EB174216EBC6
:102340000C4642EB1C421BEB060658EB02024141D5
:1023500046EA9E0601D5BDE80189B619524141EB16
:102360000101A3F10103BDE801894FEA14454FEAD9
:10237000114724EA054621EA074C05FB07F406FB52
:1023800007F70CFB06F105FB0CFC11EB074144EBD6
:1023900017444FEA124711EB0C4144EB1C4422EA6C
:1023A000074C05FB07F206FB07F70CFB06F605FBDF
:1023B0000CFC16EB074642EB174216EB0C4642EBC1
:1023C0001C456A1854F1000148BF7047B6195241C4
:1023D00041EB0101A3F10103704795F0000F37D0E5
:1023E0004FEA11424FEA144721EA024624EA074C19
:1023F00002FB07F106FB07F70CFB06F402FB0CFCE3
:1024000014EB074441EB17414FEA154714EB0C441A
:1024100041EB1C4125EA074C02FB07F506FB07F7D9
:102420000CFB06F602FB0CFC16EB074645EB1745CA
:1024300016EB0C4645EB1C42121951F1000148BF46
:102440007047B619524141EB0101A3F101037047F6
:102450004FEA14454FEA114724EA054621EA074CA2
:1024600005FB07F106FB07F70CFB06F24FF0000631
:1024700005FB0CFC12EB074241EB174112EB0C423F
:1024800051EB1C4148BF7047921841EB0101A3F189
:102490000103704721B1826842F00102826003E0CB
:1024A000826822F0010282607047000010B5044685
:1024B0001248844208D10121401501F005F900219C
:1024C000601501F001F917E00D48844208D101219F
:1024D000001501F0F9F80021201501F0F5F80BE0E6
:1024E0000848844208D10121C80301F0EDF8002119
:1024F0004FF4004001F0E8F810BD00000024014056
:1025000000280140003C0140014600208A6802F09A
:1025100004020AB1012000E0002070470146C86CA7
:1025200080B270470246002013680B400BB10120B7
:1025300000E000207047014600208A6802F008028F
:102540000AB1012000E000207047000030B50246CB
:102550000020002350680F4C20400D790C6844EA9D
:1025600005242043506090680B4C2040D1E9025470
:102570002C434D7944EA450420439060D06A20F40E
:1025800070000C7C641EE4B2234340EA0350D06226
:1025900030BD0000FFFEF0FFFDF7F1FFF0B504468F
:1025A0000D4600200021092D11DDE068A5F10A0685
:1025B00006EB4607072606FA07F18843A5F10A0647
:1025C00006EB460603FA06F10843E0600CE02069DA
:1025D00005EB4507072606FA07F1884305EB450694
:1025E00003FA06F108432061072A0FDA606B561ED2
:1025F00006EB86071F2606FA07F18843561E06EBF0
:10260000860605FA06F10843606322E00D2A0FDA18
:10261000206BD61F06EB86071F2606FA07F18843B4
:10262000D61F06EB860605FA06F10843206310E084
:10263000E06AA2F10D0606EB86071F2606FA07F1EF
:102640008843A2F10D0606EB860605FA06F108435B
:10265000E062F0BD816841F008018160704721B1FE
:10266000826842F4A002826003E0826822F4A00241
:1026700082607047816841F004018160704700000A
:1026800030B10749096841F40001054A116005E0CD
:102690000349096821F40001014A116070470000F4
:1026A000082401402DE9F04104460D4616461F4618
:1026B0002A2000F029FEC4F3072000F019FEE0B242
:1026C00000F016FEC6F3072000F012FEF0B200F094
:1026D0000FFE2B2000F018FEC5F3072000F008FEC7
:1026E000E8B200F005FEC7F3072000F001FEF8B2E3
:1026F00000F0FEFD2C2000F007FEBDE8F08100BFD9
:10270000FEE70000002000BF03E00021044A11544E
:10271000401CB0F5FA7FF8D30021024A11807047BF
:1027200057090020460000207047000008B56846A1
:1027300000F058F90121042000F0B6FF0121082023
:1027400000F0B2FF0121102000F0AEFF0120ADF833
:10275000000003208DF8020010208DF80300694668
:10276000314800F067F80220ADF8000003208DF832
:10277000020010208DF8030069462B4800F05AF83B
:102780001020ADF8000003208DF8020010208DF815
:1027900003006946244800F04DF82020ADF8000001
:1027A00003208DF8020010208DF8030069461F48B1
:1027B00000F040F84FF40050ADF8000003208DF811
:1027C000020010208DF803006946194800F032F825
:1027D0004FF48040ADF8000003208DF80200102077
:1027E0008DF803006946124800F024F84FF40040C9
:1027F000ADF8000003208DF8020010208DF80300D2
:1028000069460B4800F016F84FF40051084800F0F4
:10281000E7F84FF48041064800F0E2F84FF4004139
:10282000034800F0DDF808BD00080140000C01403D
:10283000001001402DE9F04102460025002600204D
:1028400000230024002791F803C00CF00F0591F835
:1028500003C00CF0100CBCF1000F03D091F802C0C3
:102860004CEA050591F800C0BCF1000F31D01468A6
:1028700000202BE04FF0010C0CFA00F3B1F800C07F
:102880000CEA03069E4220D183004FF00F0C0CFA95
:1028900003F7BC4305FA03FC4CEA040491F803C0B7
:1028A000BCF1280F06D14FF0010C0CFA00FCC2F865
:1028B00014C00AE091F803C0BCF1480F05D14FF0F5
:1028C000010C0CFA00FCC2F810C0401C0828D1D33F
:1028D0001460B1F800C0BCF1FF0F34DD5468002073
:1028E0002EE000F1080C4FF0010808FA0CF3B1F8E3
:1028F00000C00CEA03069E4221D183004FF00F0C6A
:102900000CFA03F7BC4305FA03FC4CEA040491F803
:1029100003C0BCF1280F05D100F1080C08FA0CF82F
:10292000C2F8148091F803C0BCF1480F07D100F140
:10293000080C4FF0010808FA0CF8C2F81080401C8F
:102940000828CED35460BDE8F0810000F0B50A46F7
:10295000002300240021002500F00046B6F1004FBE
:1029600002D11D4EF16901E01B4E7168C0F30345B1
:1029700083B200F44016B6F5401F08D121F0706113
:10298000154E766826F07066134F7E6012E000F4F4
:102990008016B6F5801F06D1032606FA05F4A1437A
:1029A00041F0706106E0460D360103FA06F6B143C8
:1029B00041F0706122B1460D360103FA06F631434B
:1029C00000F00046B6F1004F02D1034EF16101E084
:1029D000014E7160F0BD0000000001404161704790
:1029E000016170474FF6FF7101800221817004215F
:1029F000C17070472DE9FF5F0A21102001F02AFB0A
:102A00000290029803F056FB804603F089FA0646CE
:102A10004FF066321B4B03F059F8044602F068FD94
:102A200082468346504603F025FBC5B2284603F094
:102A300041FB0446514603F01DFC8246584603F014
:102A40006FFA8046104A114B03F074F9104A114B8B
:102A5000CDE9000102F03AFE064600220E4B02F0DC
:102A600079FD044602F044FD83460C49504603F0CC
:102A700035FB044603F0E2FA0390584604B0BDE883
:102A8000F09F000066664A3FE17A14AE47E1F63FE8
:102A900022FDF675E09C713F0000394000007A4449
:102AA00000BFFEE730B58BB00324002503E0002013
:102AB00002A948556D1C1E2DF9D34FF40041D94889
:102AC000FFF78CFFD8A001F0EDFAE0A22021102042
:102AD00000F0DEFB40F2DC5001F08AFF40F2DC50F7
:102AE00001F086FF3C20DDA1DDA30122CDE900102D
:102AF0001146022001F020FDFFF704FE4FF40041D3
:102B0000C848FFF76DFF4FF47A7001F071FF4FF482
:102B10000041C448FFF762FF1FE0D6A001F0C2FAEF
:102B2000C4F13300C0B20A900AAA3021052000F097
:102B3000AFFBD4A23021102000F0AAFBD3A001F0FB
:102B4000F9FA3220C5A1D3A30122CDE90010114624
:102B5000022001F0F1FC00B90024201EA4F10104C0
:102B6000DBD1FFF7CFFD4FF40041AE48FFF738FF50
:102B70004FF47A7001F03CFF4FF40041A948FFF791
:102B80002DFF03241FE0C4A001F08CFAC4F1330030
:102B9000C0B20A900AAA4021052000F079FBC4A225
:102BA0004021102000F074FBC5A001F0C3FA3220D0
:102BB000B8A1C7A30222CDE900101146104601F0CA
:102BC000BBFC00B90024201EA4F10104DBD1FFF7F7
:102BD00099FD4FF400419348FFF702FF4FF47A70DC
:102BE00001F006FF4FF400418E48FFF7F7FE032483
:102BF00015E0BAA001F056FAC4F13300C0B20A9051
:102C0000BAA001F097FA322094A1A2A30122CDE943
:102C100000101146022001F08FFC00B90024201E94
:102C2000A4F10104E5D1FFF76DFD4FF400417D48AB
:102C3000FFF7D6FE4FF47A7001F0DAFE4FF4004150
:102C40007848FFF7CBFE032435E0ACA001F02AFA68
:102C5000C4F13300C0B20A900AAA5021052000F046
:102C600017FBAFA25021102000F012FBB0A001F022
:102C700061FA2C2079A1B8A30122CDE900101146F8
:102C8000022001F059FCA8B900244FF480416548A6
:102C9000FFF7A4FE4FF400416248FFF7A1FE4FF496
:102CA00000516048FFF79CFEAFA26021102000F0A9
:102CB000EFFA00E00324201EA4F10104C5D1FFF7C0
:102CC00021FD4FF400415748FFF78AFE4FF47A7018
:102CD00001F08EFE4FF400415248FFF77FFE0324BF
:102CE0003FE0A9A001F0DEF9C4F13300C0B20A90C0
:102CF0000AAA7021052000F0CBFAA6A270211020AC
:102D000000F0C6FAA94801F015FA322053A1A8A391
:102D10000122CDE900101146022001F00DFCA0B9FE
:102D200000244FF480413F48FFF758FE4FF4004124
:102D30003C48FFF755FE4FF400513A48FFF750FE6C
:102D40009FA28021102000F0A3FA4FF47A7001F0C6
:102D50004FFE4FF47A7001F04BFE4FF47A7001F0A1
:102D600047FE201EA4F10104BBD1FFF7CBFC4FF4BA
:102D700000412C48FFF734FE4FF47A7001F038FE22
:102D80004FF400412748FFF729FE032433E094A0C5
:102D900001F088F9C4F13300C0B20A900AAA902168
:102DA000052000F075FA92A29021102000F070FA30
:102DB00093A001F0BFF9642028A199A30122CDE9D5
:102DC00000101146022001F0B7FBA0B900244FF417
:102DD00080411448FFF702FE4FF400411148FFF70D
:102DE000FFFD4FF400510F48FFF7FAFD91A2A0211B
:102DF000102000F04DFA201EA4F10104C7D1FFF706
:102E000081FC4FF400410748FFF7EAFD4FF47A7068
:102E100001F0EEFD4FF400410248FFF7DFFD03240F
:102E20000BB030BD00100140BCECB2E2204E42209D
:102E3000C4A3BFE9C9CFB5E7CAB1B7B5BBD8B5C45C
:102E4000CAFDBEDD2E2E2E0D0A00000072657374C1
:102E5000617274696E672E2E2E0000000000000063
:102E60004C656176696E67207468652042524F4DEB
:102E700000000000B7A2CBCD2041542E2E2E0D0A0B
:102E80000000000041542E2E2E00000041540D0A77
:102E9000000000004F4B0000B2E9D1AFC9E8B1B863
:102EA0002050445020B5D8D6B72E2E2E0D0A000043
:102EB00041542B434750414444523D3100000000EF
:102EC00041542B434750414444523D310D0A0000C8
:102ED0002B434750414444523A000000BDFBD6B951
:102EE000D0DDC3DF2E2E2E0D0A00000041542B43EF
:102EF00050534D533D300D0A00000000C5E4D6C3C9
:102F0000B5E7D0C520494F5420C6BDCCA8B5D8D60A
:102F1000B7BACDB6CBBFDABAC52E2E2E0D0A000039
:102F2000636F6E6E656374696E672E2E2E000000EF
:102F300041542B514D544F50454E3D302C226D7114
:102F400074742E637477696E672E636E222C313829
:102F500038330D0A000000002B514D544F50454EA0
:102F60003A20302C300000004D51545420636F6ED5
:102F70006E656374696F6E20686173206265656E4B
:102F8000206F70656E000000C1ACBDD34D5154542C
:102F90000D0A0000636F6E6E656374696E6720745E
:102FA0006F2074686520616570200000506D000816
:102FB0002B514D54434F4E4E3A20302C302C300084
:102FC0004D51545420636F6E6E656374696F6E204B
:102FD0006861732066696E6973686564000000004B
:102FE000B6A9D4C44D515454D6F7CCE20D0A000012
:102FF0007375627363726962696E67202E2E2E008C
:1030000041542B514D545355423D302C312C22729A
:10301000756E5F666C6167222C300D0A000000003F
:103020002B514D545355423A20302C312C302C30FA
:10303000000000004D515454207375626372696240
:1030400065206861732066696E6973686564000055
:1030500030B587B004460D46224605A16846FDF707
:10306000AFF969462846FDF7ABFA07B030BD00005E
:103070002564000070B50646EF2340F23F120021A0
:103080000846FFF70FFB002408E0002503E0304668
:1030900000F01EF96D1CF02DF9D3641CB4F5A07F6F
:1030A000F3D370BD2DE9FF4F85B081468A460020DD
:1030B000049003900798A0EB09050898A0EB0A0676
:1030C000CDF80890CDF804A0002D01DD012705E022
:1030D0000DB9002702E04FF0FF376D42002E02DDF0
:1030E0004FF0010806E016B94FF0000802E04FF07B
:1030F000FF387642B54201DD2C4600E034464FF001
:10310000000B1DE0DDE9011000F020F804982844D0
:1031100004900398304403900498A04205DD04987D
:10312000001B04900298384402900398A04205DDE9
:103130000398001B03900198404401900BF1010B90
:10314000601C8345DED909B0BDE8F08F70B5044638
:103150000D462B46224629462046FFF7A3FA024891
:10316000006800F0B5F870BD8C0000202DE9F0413A
:1031700004460D4616461F462B4632462946204633
:10318000FFF790FF3B46224629462046FFF78AFF7D
:103190003B46324639462046FFF784FF3B463246DF
:1031A00029463046FFF77EFFBDE8F0812DE9F84F54
:1031B00005460F4616469A46AB46324800680090D0
:1031C000B5F5987F01D8E02F01D9BDE8F88FA6F1B9
:1031D0002000C6B207F10F03EA1D39462846FFF763
:1031E00061FABAF1000F29D1002424E004EB0610A3
:1031F000254911F800904FF0000815E009F0010092
:1032000018B120490098086003E0204800681D4973
:1032100008601C48006800F05BF84FEA69096D1C03
:1032200008F1010000F0FF08B8F1080FE6DB5D4689
:103230007F1C601CC4B2102CD8DB1EE000241AE0F6
:1032400004EB0610104911F800904FF000080DE053
:1032500009F0010020B1391905EB0800FFF776FFEE
:103260004FEA690908F1010000F0FF08B8F1080F02
:10327000EEDB601CC4B2102CE2DB0249009808604F
:1032800000BFA2E78C0000207864000888000020BE
:1032900070B505460E46144615E0B5F5987F01D980
:1032A00000251036E02E06D90020054606464FF4CC
:1032B0007840FFF7DFFE2278002331462846FFF7EB
:1032C00075FF0835641C20780028E6D170BD000029
:1032D00010B5044601210548FFF782FBC4F307201F
:1032E00000F01EF8E0B200F01BF810BD000C014029
:1032F00010B5044601210348FFF772FB204600F099
:103300000FF810BD000C014010B504460121034820
:10331000FFF764FB204600F003F810BD000C0140ED
:1033200010B50446204600F08DFA10BD08B5012105
:10333000082000F0B9F941F20300ADF800001020B8
:103340008DF8030003208DF8020069468B48FFF7D3
:1033500071FA4FF203018948FFF742FB00F02EFAA1
:1033600002218648FFF73AFB142001F041FB0221BD
:103370008248FFF735FB142001F03AFB4FF48051EF
:103380007E48FFF72DFBCF20FFF7BEFF0020FFF7A1
:10339000AFFFD920FFF7ACFF3020FFF7A9FFED20EA
:1033A000FFF7B2FF6420FFF7A3FF0320FFF7A0FFA2
:1033B0001220FFF79DFF8120FFF79AFFE820FFF71B
:1033C000A3FF8520FFF794FF1020FFF791FF7820DF
:1033D000FFF78EFFCB20FFF797FF3920FFF788FF1D
:1033E0002C20FFF785FF0020FFF782FF3420FFF736
:1033F0007FFF0220FFF77CFFF720FFF785FF2020EB
:10340000FFF776FFEA20FFF77FFF0020FFF770FF4E
:103410000020FFF76DFFC020FFF776FF2120FFF7A8
:1034200067FFC120FFF770FF1220FFF761FFC52083
:10343000FFF76AFF3220FFF75BFF3C20FFF758FFE2
:10344000C720FFF761FFC120FFF752FF3620FFF7CB
:103450005BFF7820FFF74CFF3A20FFF755FF552020
:10346000FFF746FFB120FFF74FFF0020FFF740FFB7
:103470001820FFF73DFFB620FFF746FF0A20FFF7B1
:1034800037FFA220FFF734FFF220FFF73DFF0020B7
:10349000FFF72EFF2620FFF737FF0120FFF728FF59
:1034A000E020FFF731FF0F20FFF722FF2020FFF77A
:1034B0001FFF1E20FFF71CFF0920FFF719FF122036
:1034C000FFF716FF0B20FFF713FF5020FFF710FF49
:1034D000BA20FFF70DFF4420FFF70AFF0920FFF78E
:1034E00007FF1420FFF704FF0520FFF701FF23204B
:1034F000FFF7FEFE2120FFF7FBFE0020FFF7F8FE9E
:10350000E120FFF701FF0020FFF7F2FE1920FFF78F
:10351000EFFE1920FFF7ECFE0020FFF7E9FE122076
:10352000FFF7E6FE0720FFF7E3FE2D20FFF7E0FEA2
:103530002820FFF7DDFE3F20FFF7DAFE0220FFF72D
:10354000D7FE0A20FFF7D4FE0820FFF7D1FE252082
:10355000FFF7CEFE2D20FFF7CBFE0F20FFF7C8FEB2
:103560001120FFF7D1FE782001F042FA2920FFF761
:10357000CBFE0020FFF77EFD08BD0000000C0140DF
:1035800000BFFEE77047000070B5002100230F2246
:10359000C47804B3154C246804F4E064C4F5E06412
:1035A000210AC1F10403CA40447804FA03F1847883
:1035B0001440214309010E4C0678A155047804F00B
:1035C0001F050124AC4005786D11AD0005F1E02523
:1035D000C5F8004109E0047804F01F050124AC405F
:1035E000044D0678761145F8264070BD0CED00E0DC
:1035F00000E400E080E100E002490143024A11607A
:10360000704700000000FA050CED00E070472DE95E
:10361000F04105460B4616460024002200210020FA
:103620001F4601E07F1C521C97F800C0BCF1000F40
:10363000F8D1002416E000210CE005EB040C1CF886
:1036400001C013F80180C44501D1012001E0002030
:1036500002E0491C9142F0D300BF914201D1BDE884
:10366000F081641CA6EB020CA445E4D800BFF6E789
:1036700001460020034A506820F44040084350604F
:10368000704700000010024029B1064AD269024387
:10369000044BDA6104E0034AD2698243014BDA61E8
:1036A000704700000010024029B1064A92690243A7
:1036B000044B9A6104E0034A92698243014B9A6188
:1036C000704700000010024029B1064AD268024348
:1036D000044BDA6004E0034AD2688243014BDA60AB
:1036E000704700000010024030B500210022002485
:1036F00000232D4D6D6805F00C0121B1042905D082
:10370000082923D105E0294D056022E0274D0560F9
:103710001FE0254D6D6805F47012234D6D6805F4AA
:103720008034022505EB92421CB9214D55430560BA
:103730000BE01D4D6D6805F400351DB11C4D554362
:10374000056002E0194D5543056002E0174D056024
:1037500000BF00BF144D6D6805F0F0010909154D5B
:103760006B5C0568DD4045600F4D6D6805F4E061F8
:10377000090A104D6B5C4568DD4085600A4D6D6837
:1037800005F46051C90A0B4D6B5C4568DD40C560AE
:10379000054D6D6805F44041890B074D6B5CC568AC
:1037A000B5FBF3F5056130BD0010024000127A0050
:1037B00000093D002C0000203C00002000B587B02F
:1037C00001210820FFF770FF01218803FFF75CFF4C
:1037D0004FF46040ADF8180018208DF81B0003204E
:1037E0008DF81A0006A91548FFF724F80020ADF857
:1037F00004004FF48270ADF806000020ADF8080018
:103800000220ADF80A000120ADF80C004002ADF82E
:103810000E000020ADF81000ADF812000720ADF842
:10382000140001A9064800F051F80121044800F0F5
:1038300033F8FF2000F006F807B000BD000C01408F
:103840000038004070B50546002405E0601CC4B295
:10385000C82C01DD002070BD02210E4800F028F8C0
:103860000028F3D029460B4800F02EF8002405E08C
:10387000601CC4B2C82C01DD0020ECE70121054822
:1038800000F016F80028F3D0024800F01AF8C0B291
:10389000E1E700000038004021B1028842F0400218
:1038A000028004E002884FF6BF731A40028070471E
:1038B0000246002013890B400BB1012000E00020DC
:1038C00070470146888970478181704710B5002292
:1038D000028802F441520B884C8823438C8823438E
:1038E000CC8823430C8923434C8923438C8923436D
:1038F000CC8923431A430280838B4FF2FF74234009
:1039000083830B8A038210BD704700002DE9F047C6
:10391000ADF50E7D1C2187A8FCF757FF4FF4807191
:1039200047A8FCF752FF4FF4807107A8FCF74DFF42
:10393000142102A8FCF749FF002576497648006863
:10394000FFF786FBFFF756F87449086008460068E1
:1039500002F0E6FA07463A460B4671A18048FCF7AA
:103960002FFD14207FA180A30122CDE90010114674
:10397000022000F0E1FD00284CD17E497E48FCF792
:103980001FFE7EA000F08EFB7D4802237BA27DA15E
:103990000090794801F0A9F8012405E07848015D1C
:1039A000601E47AA1154641C7548FCF72DFE401E8A
:1039B000A042F3D847A800F04FFF814647A800F087
:1039C00071FB71A1484600F031FF466970A148467D
:1039D00000F02CFF824670A1504600F027FF40699E
:1039E00070490860334608466FA1026807A8FCF7D3
:1039F000E7FC07A800F056FB484600F0EBFE002568
:103A000005E000205C4948555D4948556D1CB5F5F9
:103A1000FA7FF6DBFEF776FE6248006818B966A00A
:103A200000F040FB72E033465E485FA1026802A8E6
:103A3000FCF7C6FC02A800F035FB494800F07AFB11
:103A400060A2C0211020FFF723FC142045A160A331
:103A50000122CDE900101146022000F06DFD40BBAF
:103A600000254FF480415B48FEF7B8FF4FF400415A
:103A70005848FEF7B5FF4FF400515648FEF7B0FF27
:103A800000205549087055A2C0211020FFF700FC06
:103A90002248006802F044FA07463A460B4652A113
:103AA00087A8FCF78DFC87AAC0217820FFF7F0FBE0
:103AB00016E04FF480414748FEF792FF4FF4004173
:103AC0004448FEF78DFF4FF400514248FEF786FF51
:103AD00000204149087049A2C0211020FFF7D8FBFF
:103AE000484800784849086009E000211C48464AD7
:103AF0001268815444480068401C434908604248A9
:103B00000068B0F5B17FF0D9FEF7FCFD0DF50E7D34
:103B1000BDE8F0879C0000200C0000201000002071
:103B200041542B514D545055423D302C302C302CAB
:103B3000302C2275706C6F61645F646174615F66C4
:103B40006C6167222C227B22546573745F666C6102
:103B500067223A22252E3266227D220D0A000000BD
:103B600018020020000000002B514D5452454356CE
:103B70003A000000570900207B0300200D0A0000D6
:103B80006F0500202C0000007461736B4964000015
:103B90007061796C6F61640072756E5F666C6167ED
:103BA0000000000014000020746573743A2564203E
:103BB00069643A256400000064736473646173642B
:103BC0006173000073656E642E2E2E2E00000000BF
:103BD0004F4B0000001001400800002073656E6428
:103BE000206F6B210000000054656D706572617478
:103BF0007572653A20252E32660000004661696CB8
:103C000020212000000000200400002010B500F05A
:103C100001F810BD0CB500200190009033480068F9
:103C200040F480303149086000BF3048006800F43B
:103C3000003000900198401C0190009818B901983C
:103C4000B0F5A06FF1D12948006800F4003010B140
:103C50000120009001E0002000900098012843D14D
:103C60002348006840F010002149086008460068B9
:103C700020F0030008600846006840F00200086079
:103C80001A48406819494860084640684860084634
:103C9000406840F4806048600846406820F47C102A
:103CA00048600846406840F4E810486008460068EC
:103CB00040F08070086000BF0C48006800F00070A1
:103CC0000028F9D00948406820F0030007494860FF
:103CD0000846406840F00200486000BF0348406862
:103CE00000F00C000828F9D10CBD000000100240C3
:103CF00000200240042808D14FF0E021096941F07A
:103D000004014FF0E022116107E04FF0E021096962
:103D100021F004014FF0E02211617047704700006C
:103D200010B51348006840F00100114908600846CA
:103D30004068104908400E494860084600680E492E
:103D400008400B4908600846006820F4802008609D
:103D50000846406820F4FE0048604FF41F00886069
:103D6000FFF754FF4FF000600449086010BD0000E9
:103D7000001002400000FFF8FFFFF6FE08ED00E033
:103D800010B50121284800F0A0F800284AD00121F0
:103D9000254800F08BF82548007820B123480078AA
:103DA000401E224908702248007820B1204800783F
:103DB000401E1F4908701F48007820B11D48007838
:103DC000401E1C4908701948007820B11748007837
:103DD000401E164908701848007820B1164800782F
:103DE000401E154908701548007820B11348007826
:103DF000401E12490870124800684FF6FA71884256
:103E000007D20F480068401C0D49086001200D4989
:103E100008700D480078C82804DA0B480078401C68
:103E20000949087010BD0000000400404B0000204C
:103E3000970000204A0000209800002099000020F0
:103E4000900000209A000020940000207FB50546D5
:103E50000C4601210220FFF717FCADF80850ADF821
:103E600004400020ADF80A00ADF8060001A90E4894
:103E700000F046F8012211460B4800F037F81D20EB
:103E80008DF8000000208DF8010003208DF802005D
:103E900001208DF803006846FFF776FB01210248F8
:103EA00000F007F87FBD000000040040CA43028212
:103EB000704721B1028842F00102028004E00288CA
:103EC0004FF6FE731A400280704730B5024600205C
:103ED00000230024158A05EA0103958905EA0104F7
:103EE00013B10CB1012000E0002030BD1AB183896C
:103EF0000B43838102E083898B43838170470000F9
:103F0000002202881D4B98420ED01D4B98420BD0C8
:103F1000B0F1804F08D01B4B984205D01A4B984205
:103F200002D01A4B984204D14FF68F731A404B8837
:103F30001A43174B984207D0164B984204D04FF6BD
:103F4000FF431A40CB881A4302808B8883850B88F5
:103F500003850A4B98420BD0094B984208D00E4B70
:103F6000984205D00D4B984202D00D4B984201D19A
:103F70000B7A03860123838270470000002C0140E6
:103F8000003401400004004000080040000C0040E4
:103F90000010004000140040004001400044014077
:103FA0000048014000B585B001214FF40170FFF7D2
:103FB0007BFB4FF40040FFF75BFB1848FEF776FAF7
:103FC000002000908DF804008DF805004FF460206B
:103FD00002900020039001208DF8100069460F48E0
:103FE000FEF7B4FA0120FEF74BFB01210B48FEF768
:103FF00051FA0A48FEF72EFB00BF0848FEF79BFA6D
:104000000028FAD10548FEF735FB00BF0348FEF74C
:104010007BFA0028FAD105B000BD00000024014061
:1040200010B504460723012221460948FEF7B6FAD7
:1040300001210748FEF713FB00BF02210448FEF7E9
:1040400071FA0028F9D00248FEF768FA10BD0000A6
:10405000002401402DE9F04107460C4600250026CA
:1040600008E03846FFF7DCFF0544052000F0C0FCFF
:10407000701CC6B2A642F4DBB5FBF4F080B2BDE81A
:10408000F081000010B504462146054800F0E9F92A
:1040900000BF8021024800F017F90028F9D010BDB8
:1040A0000038014010B5044603E02078FFF7EAFF2E
:1040B000641C20780028F8D110BD000010B540F233
:1040C00025510F4800F000F9C8B10D4800F0C4F9BF
:1040D000C4B20C480C49098844540B480088401C61
:1040E0000949088008460088B0F5FA7F01DB002006
:1040F000088001200549087002200549087010BD9C
:104100000038014063070020440000204D000020DB
:104110004A00002010B50446E1B2054800F0A1F9BC
:1041200000BF8021024800F0CFF80028F9D010BD70
:104130000044004010B5044603E02078FFF7EAFF92
:10414000641C20780028F8D110BD00001FB504467B
:1041500000F0A2F800F01EF800940020ADF8040072
:10416000ADF80600ADF80800ADF80C000C20ADF875
:104170000A006946064800F003F9012240F2255181
:10418000034800F0D8F80121014800F091F81FBD64
:104190000044004008B50420ADF8000003208DF86D
:1041A000020018208DF8030069461248FEF742FB12
:1041B0000820ADF8000004208DF8030069460D4882
:1041C000FEF738FB2020ADF8000003208DF8020038
:1041D00018208DF8030069460748FEF72BFB4020A6
:1041E000ADF8000004208DF8030069460248FEF790
:1041F00021FB08BD000801400014014010B540F249
:104200002551154800F06DF820B3134800F024F94B
:10421000C4B22046FFF736FF1048114909884454BC
:104220000F490988405C542802D101200D490870CB
:104230000B480088401C0A49088008460088B0F5F1
:10424000FA7F01DB00200880012007490870022066
:104250000649087010BD00000044004057090020C6
:1042600046000020560000204F0000204B00002098
:1042700008B54FF4E060FFF7BFF926208DF8000085
:1042800002208DF801008DF8020001208DF8030056
:104290006846FFF779F908BD10B5012144F23500F1
:1042A000FFF702FA01214FF00210FFF7EDF910BD00
:1042B00021B1828942F40052828104E082894DF664
:1042C000FF731A408281704702460020B1F5007FDB
:1042D00000D100BF13880B400BB1012000E000208B
:1042E000704770B50246002400230025002040F6E8
:1042F0006A16B14200D100BFC1F3421501F01F039D
:10430000012606FA03F3012D02D19689334006E017
:10431000022D02D1168A334001E0968A33400C12F6
:10432000012606FA04F41688344013B10CB10120BA
:1043300000E0002070BDF0B50346002400260025F3
:10434000002040F66A17B94200D100BF1846C1F3F9
:10435000421401F01F06012707FA06F5012C01D1CE
:104360000C3004E0022C01D1103000E014301AB1FE
:1043700007682F43076002E00768AF430760F0BD9E
:104380002DE9F04786B005460E460024A24600BF40
:10439000A1460027B08900B100BF2F462C8A4CF6F9
:1043A000FF700440F08804432C82AC894EF6F31071
:1043B0000440B08831890843718908430443AC81C3
:1043C000AC8A4FF6FF400440B0890443AC8201A898
:1043D000FFF78AF91F48874202D1DDF810A001E0FB
:1043E000DDF80CA0A88900F4004040B10AEBCA0037
:1043F00000EB0A1031684900B0FBF1F807E00AEB66
:10440000CA0000EB0A1031688900B0FBF1F86420A3
:10441000B8FBF0F004012009642101FB1089A88990
:1044200000F4004040B1322000EBC900B0FBF1F0D5
:1044300000F00700044308E0322000EB091064217B
:10444000B0FBF1F000F00F0004432C8106B0BDE892
:10445000F08700000038014001468888C0F308005A
:104460007047C1F308028280704700BFFEE700007A
:1044700010B586B00446012144F20500FFF714F997
:1044800000210420FEF762FA4FF40070ADF814002A
:1044900003208DF8160018208DF8170005A91C4878
:1044A000FEF7C8F94FF48060ADF8140004208DF8D1
:1044B000170005A91648FEF7BDF925208DF8000064
:1044C00000208DF801008DF8020001208DF8030016
:1044D0006846FFF759F801940020ADF80800ADF8E0
:1044E0000A00ADF80C00ADF810000C20ADF80E007D
:1044F00001A90848FFF744FF012240F22551054871
:10450000FFF719FF01210348FFF7D2FE06B010BDE7
:10451000000801400038014010B50446FFF7BCFE1A
:1045200000210820FEF712FAFFF734FE2046FFF7BD
:104530000DFEFFF79DFE10BD2DE9FC5F80460D4688
:1045400091469A46DDF830B0002001900090B8F115
:10455000010F03D0B8F1020F0ED106E0314C324EFC
:10456000324F4FF4FA70009006E0314C314E324F2A
:104570004FF4FA70009000BF00BF30490D980870EA
:104580002CE0207850B3307840BB00202070022D02
:104590000ED151463846009AFFF739F8F0B1594626
:1045A0003846009AFFF733F8C0B10120019015E0BA
:1045B000012D13D151463846009AFFF728F810B163
:1045C000012001900AE0B9F1020F07D1594638469F
:1045D000009AFFF71CF808B101200190019818B962
:1045E000164800780028CCD11448007838B901204A
:1045F0001349087041031348FEF7F0F907E04FF440
:1046000000511048FEF7ECF900200D4908706420B5
:1046100000F0EEF90A48007810B10120BDE8FC9FD7
:104620000020FBE74D0000204A0000206307002027
:104630004F0000204B000020570900209900002067
:104640000900002000100140490050EAC12018BFB5
:1046500004204A0D18BF40F0010040F2FF72B2EB97
:10466000515F08BF40F00200012808BF05207047D5
:1046700040F2013200204FF0E04101F0B1BE0000F5
:10468000024A0020110701F0ABBE000001FDFFFF50
:1046900010B50446D1E9000100F002F8206010BD19
:1046A000F8B504460D466A4600F0C8F900987E3019
:1046B000009000281EDC002213462046294601F007
:1046C0005DF917D0002140F608004FF000000646C3
:1046D0002046294600F00CFF044640F6080006EA92
:1046E00000014FF0000034F0004004BF0220FCF74E
:1046F000FCFF29E00098FF2828DB002108464FF046
:10470000000000F44006002213462046294601F02E
:10471000DBFA8CBF002501250220FCF7E6FF4FF0F5
:10472000FF4446B1002D0CBF4FF400004FF4800051
:10473000B04218BF084C042108464FF00000002D7D
:1047400004BF84F00040F8BD2046F8BD204629464D
:10475000BDE8F84000F0CCBEFFFF7F7F10B50446F7
:104760000A46D4E90003194600F0EAF9C4E9000159
:1047700010BD30380A2801D2012070470020704750
:10478000014600BF704700BF7047014609B1086885
:1047900008B90020704719B1D1E90120904201D336
:1047A0000846F7E702E08868401C886041B1D1E91B
:1047B0000120904204D28A680868805C2028F2DDDB
:1047C000D1E90120904202D18868401E88600846E5
:1047D000E0E7000070B50446002522E02568A089C6
:1047E00000F4807020B9A06810B1A068FFF7F2FF54
:1047F000A08900F4807028B9206918B10A4A20699C
:1048000051688847A08900F4007028B9206A18B15F
:10481000054A206A5168884703484168204688470E
:104820002C46002CDAD170BD6800002070B504461B
:104830000D4600222946204600F02EF970BD70B5C5
:10484000044628202168884705461DB128212846AE
:10485000FBF7BBFF284670BD10B504460022114689
:10486000204600F06BF810BD2DE9F0478AB00446F1
:104870000E46154698461C2103A8FBF7A6FF002705
:1048800000202C490860486004B106B932E0039466
:10489000049600200590284A07CA07AB07C326489C
:1048A000FFF7CDFF074607B924E003A800F032FD6B
:1048B0008246FFF76AFF81464946384600F08CFC85
:1048C00000B917E0B8F1000F0BD003A8FFF75DFFA8
:1048D000DDE90410884203D205990398405C00B1D9
:1048E00008E01DB1059903980844286038460AB0CD
:1048F000BDE8F08717B13846FFF76CFFC4B10194EB
:1049000000200290DDE90410884202D2059802904E
:1049100004E0049810B10498401E02901DB1DDE936
:104920000101084428600348DDE9011206C000BF08
:104930000020DCE760000020680000202DE9F04145
:1049400004460D46164614B90020BDE8F081204605
:10495000FBF75AFE471C33462A4639462046FFF7E6
:1049600083FFF2E770B504460D4604B10DB901208E
:1049700070BDAC4201D10020FAE705E0207808B90B
:104980000020F5E7641C6D1C2078FBF70CFD064643
:104990002878FBF708FD8642F0D02078FBF703FD6E
:1049A00006462878FBF7FFFC301AE1E710B56FF0F8
:1049B0000400FFF79FF90A4800680A49B0FBF1F0CC
:1049C000094908700846007800EB4001C1EBC010AF
:1049D0004FF6FF7101EAC0000449088010BD0000D5
:1049E0001800002000127A00400000204200002041
:1049F0000146114A12884A434FF0E0235A610022CF
:104A00009A611A46126942F001021A6100BF4FF022
:104A1000E022106900F001021AB100F48032002A8D
:104A2000F5D04FF0E022126922F001024FF0E023AE
:104A30001A6100229A6170474200002010B51446A6
:104A400000222260114A21F000439342A8BF10BD0A
:104A500053EA000208BF10BDB3F5801FA8BF22684B
:104A600007DA362201F0BCFC6FF0350221F000437A
:104A70002260DFF81CC06FF31E510CEB23531A4465
:104A800041F0FF5141F00051226010BD0000F07F65
:104A900002FCFFFF2E2070472DE9F04105460E462F
:104AA0001746002405B116B90020BDE8F081AC68B6
:104AB0005FB100E024688CB1206A78B13046216A89
:104AC000FBF7AAFE0028F5D108E000E024682CB12D
:104AD0003046216AFFF746FF0028F7D10CB1206A63
:104AE00008B90020E1E72046DFE72DE9F05F064640
:104AF0008A4617469846DDF828B034464FF000093C
:104B00000DE051462046FBF749FD044614B901204B
:104B1000BDE8F09F641C09F101004FFA80F9C1451E
:104B2000EFDD39462046FBF739FD05460DB9022079
:104B3000EEE72A1B21465846FBF7D0FD0020E7E7A9
:104B40002DE9F04106460C4640F2FF75174635EA5E
:104B500014502BD000221346304600F00FFF25D012
:104B60003A463046214601F03BFC06460C4635EA03
:104B7000145010D000221346304600F0FFFE15D12D
:104B80000220FCF7B2FDFFF77BFD0A46214662F3E7
:104B90001E01BDE8F0810220FCF7A7FDFFF768FDCC
:104BA0000A46214662F31E01BDE8F08130462146E7
:104BB000BDE8F081DAB04FF4B27101A8FBF705FE51
:104BC000FDF7B4FDFFF7F2FE4FF4E130FFF750FCC4
:104BD0004FF4E130FFF7A0FC41F61F4140F2E7300F
:104BE000FFF734F9FEF7A2FBFFF7DCF90020FEF730
:104BF00041FA4FF4FC6016490860F0234FF4A072AC
:104C000000210846FEF7B2FA4FF6E070104908603E
:104C100010211048FDF7E4FE18E00F48007838B185
:104C200000200D490870FDF73DFF0CA0FFF73AFA90
:104C3000FEF76CFE40F2DC50FFF7DAFE40F2DC508B
:104C4000FFF7D6FE40F2DC50FFF7D2FEE5E70000AA
:104C50008C0000200008014008000020C7EBB7A22C
:104C6000CBCDD3A2CEC4D7D6B7FBA3ACB2A2D2D4FD
:104C7000BBD8B3B5BDE1CAF8A3A10D0A000000007E
:104C80002DE9F04180460C4600250027E068B0F58C
:104C90007A7F02D30020BDE8F081E068401CE0602C
:104CA000A1682068405C5B2800D05FE0A068401CE1
:104CB000A0602046FFF769FD4CB1D4E9011088429D
:104CC00005D2A1682068405C5D2800D13FE01CB19E
:104CD000D4E90110884203D3A068401EA06045E0DB
:104CE000A068401EA06000BF04F11000FFF7A7FD00
:104CF000064606B93AE015B93546374602E03E6049
:104D000077603746A068401CA0602046FFF73DFD55
:104D10002146384600F060FA00B927E02046FFF748
:104D200034FD44B1D4E90110884204D2A16820685E
:104D3000405C2C28D8D044B1D4E90110884204D278
:104D4000A1682068405C5D2800D00FE000BFE068EB
:104D5000401EE06005B16F602020C8F80C00C8F864
:104D60000850A068401CA060012094E715B12846B7
:104D7000FFF730FD00208EE702460023002100BF30
:104D800023E0505C302806DB505C392803DC505CA3
:104D90003038034415E0505C412806DB505C46285F
:104DA00003DC505C373803440BE0505C612806DBC1
:104DB000505C662803DC505C5738034401E0002057
:104DC0007047032900D21B01491C0429D9D3184676
:104DD000F6E700002DE9F04391B080460C4600BF95
:104DE00000201090FFF756FE814600250CB1206888
:104DF00018B9002011B0BDE8F08300253CE0A1689F
:104E000020680844405D342820D00ADCA0F12B0043
:104E100009282ED2DFE800F0202D212A2D161718A0
:104E20001900382816D006DC352810D036280FD0C7
:104E300037281ED10DE039280DD045280FD0652820
:104E400017D10BE000BF00BF00BF00BF00BF00BF15
:104E500000BF00BF00BF00BF00BF00BF00BFA16810
:104E600020680844405D0DF8050003E00DF805904A
:104E700000E00AE000BF6D1C3F2D05D224B1A06800
:104E8000284461688842BAD300BF00200DF80500AD
:104E900010A9684600F05CFA06460F46684610996D
:104EA000884201D10020A5E7C8E90667144A154BDE
:104EB0003046394600F008FF04D86FF00040C8F8CB
:104EC000140011E00022104B3046394600F0C2FDBC
:104ED00004D84FF00040C8F8140005E030463946C9
:104EE00000F088FDC8F814000820C8F80C00A0687D
:104EF0006A461099891A0844A06001207AE70000E8
:104F00000000C0FFFFFFDF410000E0C12DE9F041DC
:104F100080460C4600260025E068B0F57A7F02D373
:104F20000020BDE8F081E068401CE06044B1D4E9B5
:104F30000110884204D2A1682068405C7B2800D020
:104F40007DE0A068401CA0602046FFF71EFC4CB12D
:104F5000D4E90110884205D2A1682068405C7D2810
:104F600000D15DE01CB1D4E90110884203D3A068F0
:104F7000401EA06063E0A068401EA06000BF04F176
:104F80001000FFF75CFC074607B958E016B93E462B
:104F90003D4602E02F607D603D46A068401CA06059
:104FA0002046FFF7F2FB2146284600F04EF800B9F4
:104FB00045E02046FFF7E9FB2869286200202861C8
:104FC00044B1D4E90110884204D2A1682068405C51
:104FD0003A2800D033E0A068401CA0602046FFF7CC
:104FE000D4FB2146284600F0F7F800B927E0204618
:104FF000FFF7CBFB44B1D4E90110884204D2A16889
:105000002068405C2C28BAD044B1D4E90110884211
:1050100004D2A1682068405C7D2800D00FE000BF6A
:10502000E068401EE06006B175604020C8F80C00E2
:10503000C8F80860A068401CA060012071E716B1A4
:105040003046FFF7C7FB00206BE72DE9F84F80469D
:105050000C46A16820680844461CA16820680844E2
:10506000451C002000900027A1682068405C222891
:1050700000D0A6E04FF0000AD1460DE028785C2869
:1050800009D1681C2168401A6168884200D398E001
:1050900009F101096D1C6D1C2068281A616888429D
:1050A00002D228782228E9D12068281A616888422B
:1050B00002D22878222800D083E0A1682068084422
:1050C000281AA0EB090A0AF101002169884707465E
:1050D00007B976E0009761E030785C2807D016F8D1
:1050E000010B009908700098401C009056E04FF0AA
:1050F0000209A81B012800DA63E07078662819D03D
:1051000008DC222832D02F2832D05C282FD0622809
:1051100040D108E06E2814D0722819D074281ED00F
:10512000752837D12BE00820009908700098401CA2
:10513000009030E00C20009908700098401C00900E
:1051400029E00A20009908700098401C009022E095
:105150000D20009908700098401C00901BE0092069
:10516000009908700098401C009014E000BF00BF38
:105170007078009908700098401C00900BE06A4617
:105180002946304600F0F2F88146B9F1000F00D10F
:1051900017E000E015E000BF4E4400BFAE429BD3D5
:1051A0000020009908701020C8F80C00C8F8107092
:1051B0002068281AA060A068401CA0600120BDE8FB
:1051C000F88F17B138466169884716B12068301AE0
:1051D000A0600020F3E7000070B505460C460CB156
:1051E000206808B9002070BD9CB1A068001D6168EE
:1051F00088420ED8A2682168881804223FA1FBF7D4
:1052000022FA30B90420E860A068001DA0600120E7
:10521000E9E79CB1A068401D616888420ED8A26889
:1052200021688818052237A1FBF70DFA30B9012053
:10523000E860A068401DA0600120D4E7ACB1A06880
:10524000001D6168884210D8A2682168881804226D
:105250002EA1FBF7F8F940B90220E860012068614F
:10526000A068001DA0600120BDE76CB1D4E9011069
:10527000884209D2A1682068405C222804D12146D6
:105280002846FFF7E2FEAEE7BCB1D4E90110884240
:1052900013D2A1682068405C2D2809D0A16820683D
:1052A000405C302809DBA1682068405C392804DCB8
:1052B00021462846FFF78EFD95E76CB1D4E9011031
:1052C000884209D2A1682068405C5B2804D121464D
:1052D0002846FFF7D5FC86E76CB1D4E90110884277
:1052E00009D2A1682068405C7B2804D12146284669
:1052F000FFF70CFE77E7002075E700006E756C6C19
:105300000000000066616C736500000074727565D2
:105310000000000010B504461CB1206808B1A06868
:1053200008B1002010BD7CB1A068001D61688842F2
:105330000AD2A26821688818032204A1FBF783F926
:1053400010B9A068C01CA0602046EBE7EFBBBF000F
:1053500000B583B00A460021CDE900110146684638
:10536000FCF738F8DDE9000103B000BD2DE9FF5F6F
:1053700080468946154600240026C2460020039038
:10538000834602900190A9EB0A00062800DA81E02A
:105390000AF10200FFF7F0FC0646B6F55C4F03D3B6
:1053A000B6F5604F00D275E0B6F5584F29D3B6F583
:1053B0005C4F26D20AF10607002000900C200290D4
:1053C000A9EB0700062800DA64E038785C2802D1EF
:1053D0007878752800D05DE0B81CFFF7CDFC009010
:1053E0000098B0F55C4F03D30098B0F5604F00D340
:1053F00050E0C6F30901009861F39F2000F5803466
:1054000002E0062002903446802C02D20120039054
:1054100018E0B4F5006F04D202200390C020019080
:1054200010E0B4F5803F04D203200390E020019007
:1054300008E0B4F5881F04D204200390F020019006
:1054400000E027E00398401E00F0FF0B0BE004F0A3
:10545000BF0040F08000296801F80B00A409ABF1FF
:10546000010000F0FF0BBBF1000FF0DC03980128F6
:1054700004DD019820432968087003E004F07F00F0
:10548000296808702968039808442860029804B0C5
:10549000BDE8F09F0020FAE710B500290AD008788F
:1054A000002807D005487844FBF7B6F9002801D05A
:1054B000002010BD0248784410BD000052190000C1
:1054C0004A19000010B500290AD00878002807D032
:1054D00005487844FBF7A0F9002801D0002010BD52
:1054E0000248784410BD0000361A00002E1A000051
:1054F00021F00042A2F16052B2F5801F01F000439A
:1055000028BFD2F17F6C0BD95FEA001C43EAC202CC
:1055100042EB507018BF704728BF20F00100704761
:10552000B2F5801FBCBF184670474FEA410C1CF50E
:10553000001F02D2084600F098BE70B500F070FB64
:1055400000000089FFF7F6BF4FF00040A0F5800093
:105550007047000010B591EA030F48BF83F0004385
:1055600000F1FC83841A71EB030C05D2121943EB92
:105570000C03001B61EB0C01DFF824E14FEA11542E
:10558000A4EB135C1EEA430F18BF9EEA445F73D07E
:1055900023EA0E03DCF1200E21EA045143F48013C8
:1055A00032D322FA0CFE10EB0E0023FA0CFE41EB74
:1055B0000E01CCF1200E03FA0EFE10EB0E0051F19D
:1055C0000001B1F5801FCCF1200E32D201EB045165
:1055D00012FA0EF2BDE8104058BF7047401C38BFA9
:1055E0005FEA420218BF7047002814BF20F0010094
:1055F00041F100014FEA410313F5001F38BF704726
:10560000A1F1C04100F05ABB012A43EB0302ACF107
:10561000200CDCF11F0E32BF4FF0000E23FA0CF30A
:1056200010EB030041EB0451B4EB115FD0D0A1EBC0
:10563000045101F5801149085FEA300001EB045183
:105640000ED350F1000038BF12FA0EFE08D1BDE8AB
:105650001040C9E7401C38BF5FEA4202CAD1C3E725
:10566000BDE810404FEA410313F5001F38BF7047F3
:10567000A1F1C04100F022BB9EEA445F08D011EACC
:105680005E0FBDE8104004BF01F0004100207047EC
:10569000BDE8104070B500F0C3FA00BF64FBBE3E29
:1056A0000000E0FF02494FF0000000F067BE00BFBD
:1056B0000000F87F491058BFC1F140415B1058BF4E
:1056C000C3F140438B42EFF3008070472DE9C041A6
:1056D00030B4DFF8A0C23CEA111418BF3CEA13143E
:1056E00000F0EC8081EA03051CEA111444EAD57449
:1056F00018BF1CEA131500F0C780A4EB05044FF097
:10570000004545EAC12145EAC32341EA505143EA35
:10571000525304F17F74994204F500344FEAC020DB
:105720004FEAC22208BF904200F09C804FEA136506
:105730000FF24016765D4FEA134506FB05F7C7F1F9
:10574000807706FB07F74FEAD737A7FB0368764257
:10575000C8F58038A7FB06CE38BFA8F1010807FBC3
:1057600008E64FF0000EA6FB028CE6FB03CEDCF150
:10577000000CCEF1004E38BFAEF1010EA6FB0C5866
:105780004FF000074FF00005E6FB0E87A1FB08C6AF
:10579000A0FB07CE16EB0E0645F10005E1FB076501
:1057A00015F1E04E7EBFA4F580345FEA46066D41F8
:1057B00016F1800745F100054FEA17274FEA066604
:1057C00047EA0567A6F1DE46B6F1805F4FEA152588
:1057D0001FD9384624F0010C05EBC471BCF1FE6FF3
:1057E00001EB0C1102D8F0BCBDE8008124425CBF83
:1057F00001F5801E9EEAC47F02D4F0BCBDE80081A2
:10580000244238D4F0BCA1F1C041BDE8004100F011
:1058100055BA4FEAD22242EA43524FEAD323A7FBBA
:1058200002864FEAD02040EA415007FB03661EEA99
:105830000E0F4FEAD12105FB026658BFA6EB0056BA
:10584000B6EB00564FEA520E4EEAC37E18EB0E0E30
:1058500056EB530EBDD518EB02085E417F1C55F187
:105860000005B6E74FF480154FF000074FF0000633
:105870004FF00008ADE7F0BC4FF0000001F1C0416F
:1058800001F00041BDE8008111EA0C1F0CEA13157C
:1058900000D00CE013EA0C1F00F025804FF0000050
:1058A000F0BC81EA030101F00041BDE80081F0BCD9
:1058B000BDE8004181EA030100F000BAF0BCBDE898
:1058C000004170B500F0ACF9097EFC3E00F007B86D
:1058D00081EA03014FF0000001F00041704781EAC6
:1058E000030100F0EBB9F0BCBDE800414FF000004F
:1058F00021497047FFFDFBF9F7F5F4F2F0EEEDEB0F
:10590000E9E8E6E4E3E1E0DEDDDBDAD8D7D5D4D3BD
:10591000D1D0CFCDCCCBCAC8C7C6C5C4C2C1C0BF09
:10592000BEBDBCBBBAB9B8B7B6B5B4B3B2B1B0AF0F
:10593000AEADACABAAA9A8A8A7A6A5A4A3A3A2A1F3
:10594000A09F9F9E9D9C9C9B9A99999897979695AE
:1059500095949393929191908F8F8E8E8D8C8C8B4A
:105960008B8A8989888887878685858484838382D2
:10597000828181800000FF070000F87F51EA030C5C
:1059800017D41CF5801F58BFBCF5801F00F106809E
:10599000994218BF704708BF9042704707D711F56A
:1059A000801F58BF13F5801F19D499427047894250
:1059B00070471CF5801F08D5BCF5801FF7D58B42BA
:1059C00018BF704708BF824270474FF4001C1CEBA1
:1059D000410F38BF1CEB430F01D28B42704770B5AB
:1059E00000F01EF9922449004FF000514FF080530F
:1059F000FFF760BE4FEA41034FEA5353A3F58063BC
:105A0000D3F11E03C8BFD3F1210C0CDD4FF00042CF
:105A100042EAC12242EA505232FA03FC8CEAE17CAB
:105A2000ACEBE1707047102BC4BF0020704703F54A
:105A3000787CBCF1FF3F04D06FF0004282EA210085
:105A4000704770B500F0ECF8499224800020704750
:105A5000F2E7000051EA030C17D41CF5801F58BF71
:105A6000BCF5801F00F10680994218BF704708BF3F
:105A70009042704707D711F5801F58BF13F5801F5C
:105A800019D499427047894270471CF5801F08D588
:105A9000BCF5801FF7D58B4218BF704708BF824204
:105AA00070474FF4001C1CEB410F38BF1CEB430F39
:105AB00001D28B42704770B500F0B2F892244900D1
:105AC0004FF000514FF08053FFF7F4BDDFF848C1AD
:105AD00070B51CEA111E1EBF1CEA13159EEA0C0FBE
